:020000040800F2
:1000000058040020A9010008131400085113000827
:1000100011140008150200089F19000800000000D4
:10002000000000000000000000000000371400087D
:1000300017020008000000003514000839140008F9
:10004000C3010008C3010008C3010008C301000880
:10005000C3010008C3010008C3010008C301000870
:10006000C3010008C3010008C3010008C301000860
:10007000C3010008C3010008C3010008C301000850
:10008000C3010008C3010008C3010008C301000840
:10009000C3010008C3010008C3010008C301000830
:1000A000C3010008C3010008C3010008C301000820
:1000B000C3010008C3010008C3010008C301000810
:1000C000C3010008C3010008C3010008C301000800
:1000D000C3010008C3010008C3010008C3010008F0
:1000E000C3010008C3010008C3010008C3010008E0
:1000F000C3010008C3010008C3010008C3010008D0
:10010000C30100080000000000000000C301000857
:10011000C3010008C3010008C3010008C3010008AF
:10012000C3010008C3010008C3010008C30100089F
:10013000C3010008C3010008000000000000000027
:10014000C3010008C3010008C3010008000000004B
:10015000000000000000000000000000000000009F
:10016000C3010008C3010008C3010008C30100085F
:10017000C3010008C3010008C3010008C30100084F
:10018000C3010008C30100080000000000000000D7
:10019000C3010008DFF80CD000F02AF8004800473F
:1001A000C119000858040020064880470648004747
:1001B000FEE7FEE7FEE7FEE7FEE7FEE7FEE7FEE717
:1001C000FEE7FEE79114000895010008D2B201E0B5
:1001D00000F8012B491EFBD270470022F6E710B54C
:1001E00013460A4604461946FFF7F0FF204610BDA5
:1001F000064C074D06E0E06840F0010394E8070074
:1002000098471034AC42F6D3FFF7C8FF701A0008C5
:10021000901A0008FEE770472DE9F84FDFF8A0B10B
:10022000002301274FF0030A4FF00F090BF1040ED2
:10023000BEE000BF07FA03F63440220072D04C68DB
:10024000022C01D0122C12D1DC0800EB840CDCF85B
:1002500020405D07ED0E09FA05F824EA0804D1F8FC
:10026000108008FA05F848EA0408CCF82080D0F895
:1002700000805D0091F804C00AFA05F40CF0030C4C
:1002800028EA04080CFA05FC4CEA080CC0F800C087
:10029000D1F804C0BCF1010F08D0BCF1020F05D0A9
:1002A000BCF1110F02D0BCF1120F16D1D0F808C06A
:1002B000D1F80C802CEA040C08FA05F848EA0C087E
:1002C000C0F80880D0F804C02CEA060C0E79C6F3FA
:1002D00000169E4046EA0C064660C668A6438C6837
:1002E000AC403443C4604C68E40060D5354CA5692B
:1002F00045F00105A561A46923F0030504F001049C
:100300000094314C2E19B4689D074FEA157C09FA08
:100310000CF5AC43B0F1904F05D02C4DA84204D160
:1003200001251CE043E0002519E0294DA84201D138
:10033000022514E0274DA84201D103250FE0264DE8
:10034000A84201D104250AE0244DA84201D1052587
:1003500005E0234DA84201D1062500E0072505FA56
:100360000CF52543B560DBF800405D464E689443CC
:10037000F60300D514432C60DEF8004075464E6845
:100380009443B60300D514432C600D4D08352C68FA
:100390004E689443F60200D514432C60084D0C358A
:1003A0002C684E689443B60200D514432C605B1C45
:1003B0000A681446DA407FF43DAFBDE8F88F0000CC
:1003C0000004014000100240000001400004004809
:1003D00000080048000C00480010004800140048C5
:1003E00000180048014880687047000004000020A1
:1003F000024881680278114481607047040000203F
:10040000074810B5016841F010010160032000F0B9
:1004100061F8002000F006F800F024F8002010BD7C
:100420000020024070B50D4D04464FF47A712878D3
:10043000B1FBF0F00A490968B1FBF0F000F040FDB3
:1004400048B9102C07D200222146501E00F022F895
:1004500000206C6070BD012070BD00000400002011
:10046000100000200A4882B0816941F001018161D9
:10047000816901F001010091C16941F08051C161C0
:10048000C06900F080500090072002B000F022B850
:1004900000100240F0B40E4B1B680C46C3F302235D
:1004A000C3F10705042D00D90425191D072901D220
:1004B000002300E0DB1E012606FA05F1491E21405B
:1004C00099409E40761E16403143F0BC00F0A2BF1A
:1004D0000CED00E0064900F0070208684FF6FF0344
:1004E000184040EA0220034A1043086070470000A9
:1004F0000CED00E00000FA052DE9F84F0446006815
:100500009F4DC0036FD5E8690026C00008D4E86994
:1005100040F08050E861E869012600F080500090CA
:1005200098480168C90512D40168804641F4807179
:100530000160FFF757FF074605E000BFFFF752FFD6
:10054000C01B642835D8D8F80000C005F6D5286A45
:1005500010F4407053D0A18801F4407181424ED014
:10056000286A4FF4803191FAA1F2B2FA82F2970030
:10057000854A4FF00108174420F44070C7F8008402
:1005800091FAA1F1B1FA81F102EB81010023C1F8E6
:1005900000342862C00732D0FFF724FF074641F23B
:1005A000883A4FF0020907E0FFF71CFFC11B5145D5
:1005B00002D90320BDE8F88F99FAA9F1B1FA81F1C7
:1005C00041F040024846B8EB521F01D12A680CE0C6
:1005D00090FAA0F2B2FA82F242F04002B0EB521F5F
:1005E00002D12A6A01E015E06A6A99FAA9F0B0FA24
:1005F00080F000F01F0008FA00F10A42D4D0286A07
:10060000616820F44070084328621EB1E86920F058
:100610008050E8612078C00705D0286BA16820F0E1
:100620000300084328632078800705D5286BE1681C
:1006300020F44030084328632078400705D5286B14
:10064000216920F44020084328632078800605D5DE
:10065000286BE16920F010000843286320688003BC
:1006600005D56868616D20F48000084368602078D3
:10067000400605D5286B216A20F020000843286336
:100680002068400305D5286B616A20F040000843CC
:1006900028632078000705D5286B616920F4401095
:1006A000084328632078C00605D5286BA16920F48B
:1006B0004000084328632088800505D56868216BC1
:1006C00020F40000084368602078000605D5E86A39
:1006D000A16A20F4F8700843E8622088C00505D5B7
:1006E000E86AE16A20F478500843E8622088C00490
:1006F00005D5286B616B20F480700843286320883F
:10070000800405D5286B216C20F400700843286311
:100710002068C00205D5286BA16B20F080700843CB
:1007200028632068800205D5286BE16B20F00070FB
:10073000084328632068400205D5286B616C20F4CB
:100740008060084328632068000205D5286BA16CEF
:1007500020F40060084328632068C00105D5286B99
:10076000E16C20F40050084328632068800105D51F
:10077000286B216D20F4004008432863002019E70E
:100780000010024000700040000042422DE9F04796
:100790000F46050069D04A4E306800F00700B842A5
:1007A00009D2306820F0070038433060306800F02C
:1007B0000700B84259D12878424C800705D56068B7
:1007C000A96820F0F000084360602878C0073DD099
:1007D0006968012001290DD0022923D05FF00203AE
:1007E00093FAA3F2B2FA82F242F02002520904D044
:1007F000226803E04FF40033F2E7626A93FAA3F34E
:10080000B3FA83F303F01F03984002422DD06068CF
:1008100020F0030008436060FFF7E4FD804641F2EA
:1008200088390CE04FF00073DAE700BFFFF7DAFD1C
:10083000A0EB0801494502D90320BDE8F0876068B4
:10084000696800F00C00B0EB810FEFD1306800F068
:100850000700B8420BD9306820F0070038433060F9
:10086000306800F00700B84201D00120E5E72878A1
:10087000400705D56068E96820F4E06008436060DF
:100880002878000706D56068296920F4605040EA9E
:10089000C100606000F01CF86168F02292FAA2F2D8
:1008A00001F0F001B2FA82F2D140074A515CC8402F
:1008B000064908600020FFF7B5FD0020BDE70000F5
:1008C0000020024000100240601A000810000020C2
:1008D000124B10B55968124801F00C02042A1CD0C2
:1008E000082A1AD14FF4701494FAA4F401F4701287
:1008F000B4FA84F4E2400B4CDB6AA25C0F2494FA55
:10090000A4F403F00F03B4FA84F4E340054CC903E4
:100910001034E35CB0FBF3F0504310BD0010024014
:1009200000127A00401A00082DE9F84F04007DD02B
:100930002078FA4DC0074FF0010637D06868770479
:10094000C0F38100012819D06868C0F38100022833
:1009500004D16868C0F3C13002280FD06068B0F5D8
:10096000803F24D010B1B0F5A02F2AD0286820F401
:1009700080302860286820F480201BE097FAA7F0D8
:10098000B0FA80F040F02000400901D0286800E073
:10099000686A97FAA7F1B1FA81F101F01F0106FA2E
:1009A00001F108424ED060680028C0D04AE02868B3
:1009B00040F480302860606820B3FFF713FD804664
:1009C0000AE0286840F480202860F0E7FFF70AFD7D
:1009D000A0EB0800642873D897FAA7F0B0FA80F06B
:1009E00040F02000400901D0286800E0686A97FACA
:1009F000A7F1B1FA81F101F01F0106FA01F10842F5
:100A0000E4D01FE0FFF7EEFC804605E0FFF7EAFCCC
:100A1000A0EB08006428DED897FAA7F0B0FA80F0BF
:100A200040F02000400902D0286801E0B9E0686A7F
:100A300097FAA7F1B1FA81F101F01F0106FA01F16D
:100A40000842E3D12078DFF8D88280074FF0000A0F
:100A50004FF002075DD568684FF0F80B10F00C0FEF
:100A600015D06868C0F38100022804D16868C0F31B
:100A7000C13001280BD0E068A0B396FAA6F0B0FA16
:100A800080F048F82060FFF7ADFC814620E097FA3F
:100A9000A7F0B0FA80F040F02000400901D02868AB
:100AA00000E0686A97FAA7F1B1FA81F101F01F013D
:100AB00006FA01F1084221D0E068012871D11DE059
:100AC00056E100BFFFF78EFCA0EB09000228A2D878
:100AD00097FAA7F0B0FA80F040F02000400902D069
:100AE000286801E016E0686A97FAA7F1B1FA81F187
:100AF00001F01F0106FA01F10842E3D028689BFAD1
:100B0000ABF22169B2FA82F220F0F800914008437A
:100B1000286024E096FAA6F1B1FA81F148F821A004
:100B2000FFF760FC814605E0FFF75CFCA0EB0900E5
:100B30000228CCD897FAA7F0B0FA80F040F0200055
:100B4000400901D0286800E0686A97FAA7F1B1FA75
:100B500081F101F01F0106FA01F10842E4D1207889
:100B600000076AD56069A0B396FAA6F0B0FA80F0E3
:100B700008EB8000C0F88064FFF734FC814605E094
:100B8000FFF730FCA0EB09000228A0D897FAA7F0E5
:100B9000B0FA80F040F06000B6EB501F02D1286838
:100BA0000CE073E197FAA7F0B0FA80F040F0600033
:100BB000B7EB501F01D1286A00E0686A97FAA7F1E5
:100BC000B1FA81F101F01F0106FA01F21042D7D00B
:100BD00033E0FFE796FAA6F0B0FA80F008EB800069
:100BE000C0F880A4FFF7FEFB814605E0FFF7FAFBA3
:100BF000A0EB090002289CD897FAA7F0B0FA80F081
:100C000040F06000B6EB501F01D128680BE097FA66
:100C1000A7F0B0FA80F040F06000B7EB501F01D1B0
:100C2000286A00E0686A97FAA7F1B1FA81F101F049
:100C30001F0106FA01F21042D8D12078400774D57E
:100C4000E8694FF00009C00009D4E86940F080501D
:100C5000E861E8694FF0010900F0805000903148E8
:100C60000168C90512D4016841F480710160FFF781
:100C7000B9FB834606E000BFFFF7B4FBA0EB0B0017
:100C8000642875D827480068C005F5D5A0680128F4
:100C90000AD008B1052811D0286A20F00100286286
:100CA000286A20F0040002E0286A40F0010028626F
:100CB000A068C8B3FFF796FB83460DE0286A40F0B2
:100CC00004002862F0E700BFFFF78CFBA0EB0B01EC
:100CD00041F2883081424BD897FAA7F0B0FA80F001
:100CE00040F04000B6EB501F01D128680BE097FAA6
:100CF000A7F0B0FA80F040F04000B7EB501F01D1F0
:100D0000286A00E0686A97FAA7F1B1FA81F101F068
:100D10001F0106FA01F21042D6D035E00010024061
:100D2000000042420070004000E034E0FFF75AFB50
:100D3000834607E0FFF756FBA0EB0B0141F288303A
:100D4000814215D897FAA7F0B0FA80F040F0400041
:100D5000B6EB501F01D128680CE097FAA7F0B0FA63
:100D600080F040F04000B7EB501F02D1286A01E04C
:100D700089E0686A97FAA7F1B1FA81F101F01F01E1
:100D800006FA01F21042D5D1B9F1000F03D0E8699B
:100D900020F08050E861A06980B36968C1F38101E7
:100DA000022973D04FF080714F000228524609D0BB
:100DB00091FAA1F0B0FA80F048F82020FFF712FB7A
:100DC000044664E091FAA1F0B0FA80F08A46C14688
:100DD00048F82020FFF706FB804605E0FFF702FBFE
:100DE000A0EB080002284ED897FAA7F0B0FA80F0DE
:100DF00040F02000400902D0286801E05CE0686A09
:100E000097FAA7F1B1FA81F101F01F0106FA01F199
:100E10000842E3D1E86A616A20F00F000843E86203
:100E2000D4E907100843696821F476110843686023
:100E30009AFAAAF0B0FA80F049F82060FFF7D2FAE7
:100E4000044604E0FFF7CEFA001B02281BD897FAED
:100E5000A7F0B0FA80F040F02000400901D02868E7
:100E600000E0686A97FAA7F1B1FA81F101F01F0179
:100E700006FA01F10842E5D01EE000BFFFF7B2FA22
:100E8000001B022803D90320BDE8F88F16E097FA6B
:100E9000A7F0B0FA80F040F02000400901D02868A7
:100EA00000E0686A97FAA7F1B1FA81F101F01F0139
:100EB00006FA01F10842E1D10020E5E70120E3E76D
:100EC00010B5401EB0F1807F01D3012010BD4FF05E
:100ED000E02460610F21601700F09CFA0020A061FF
:100EE00007202061002010BD30B590F83C20012A79
:100EF00040D0012280F83C20CA688B6822F44072FE
:100F00001A434B6822F480621A430B6822F4006291
:100F10001A430B6922F480521A434B6922F400529F
:100F20001A438B6A22F480421A4322F400421A4385
:100F30000B8B22F4702242EA03420F4D0368002417
:100F4000AB4205D00D4DAB4202D00D4DAB420CD1A2
:100F50008D8C22F4700242EA0552CD6922F0807233
:100F60002A43096A22F000720A435A6480F83C401E
:100F7000002030BD022030BD002C01400034014073
:100F80000050014030B590F83C20012A22D00122C7
:100F900080F83C200268536894680F4DAA4205D03F
:100FA0000E4DAA4202D00E4DAA4203D123F4700581
:100FB0004B682B4323F070050B6889682B4324F0A2
:100FC00080042143536002689160002180F83C1046
:100FD000084630BD022030BD002C014000340140E5
:100FE0000050014010B5040003D094F83D0010B14A
:100FF00007E0012010BD002084F83C00204600F0EE
:101000000DF8022084F83D00211D206800F074FADC
:10101000012084F83D00002010BD000008B50068E4
:101020000649884208D10648816941F4006181611E
:10103000806900F40060009008BD0000002C0140B1
:101040000010024070B5044690F83C00012817D00B
:10105000012584F83C50022084F83D002268906805
:10106000364E304020F47F4090600868502839D0D8
:101070000DDC20285BD005DC98B3102843D153E069
:10108000022070BD302855D040283CD141E0602876
:1010900030D070280CD0B0F5805F03D0B0F5005F81
:1010A00031D112E020688168244A7032114016E084
:1010B000CB68D1E90121206800F08BFA21688868AB
:1010C000304040F0770088601DE0CB68D1E9012115
:1010D000206800F07EFA2068816841F480418160D8
:1010E00011E01EE0CA684968206800F035FC502114
:1010F000206806E0CA684968206800F03EFC60216C
:10110000206800F070FA84F83D50002084F83C001C
:1011100070BDCA684968206800F01EFC4021206844
:10112000EFE700212068ECE710212068E9E72021A3
:101130002068E6E730212068E3E7000088FFFEFF33
:1011400010B586B0044614216846FFF746F80D49ED
:101150002068884214D10C48416941F40021416162
:101160004069002100F40020059003200090022037
:10117000CDE90101CDE9031069460448FFF74CF8B9
:1011800006B010BD002C01400010024000080048CD
:1011900070B5044690F83C000D4601280ED001269B
:1011A00084F83C60022084F83D000C2A45D007DC1E
:1011B0005AB1042A1BD0082A78D12CE0022070BD35
:1011C000102A4ED0142A71D15DE0206800F014FA84
:1011D0002068816941F0080181612068816921F0FE
:1011E00004018161206881692A69114311E0206846
:1011F00000F058FA2068816941F40061816120683B
:10120000816921F480618161206881692A6941EAEC
:10121000022181614AE0206800F094FA2068C169E7
:1012200041F00801C1612068C16921F00401C16178
:101230002068C1692A69114311E0206800F0D2FAE0
:101240002068C16941F40061C1612068C16921F46D
:101250008061C1612068C1692A6941EA0221C161D6
:1012600024E0206800F0FEFA2068416D41F008019A
:1012700041652068416D21F0040141652068416DA0
:101280002A69114311E0206800F028FB2068416DB5
:1012900041F4006141652068416D21F48061416540
:1012A0002068416D2A6941EA0221416584F83D6068
:1012B000002084F83C0070BD10B5040003D094F801
:1012C0003D0010B107E0012010BD002084F83C0073
:1012D000204600F00CF8022084F83D00211D206813
:1012E00000F00AF9012084F83D00002010BD70478D
:1012F00010B504460068012200F060F90E4821682C
:1013000081420ED00D4881420BD00D48814208D059
:101310000C48814205D00C48814202D00B488142E2
:1013200003D1486C40F4004048642068016841F0F3
:1013300001010160002010BD002C0140003401407B
:10134000004001400044014000480140005001407D
:10135000FEE7000010B59AB0002417941894159475
:101360001694129413941C210BA81494FEF735FFC5
:101370002C216846FEF731FF2448234901604F21A4
:10138000C0E901140921C0E9031444618461FFF735
:1013900029FE4FF48050159015A91C48FFF752FE06
:1013A0001A48FFF789FF1294139412A9174814944E
:1013B000FFF7E8FD6020CDE90B040D940E940F9427
:1013C000109400220BA911481194FFF7E1FE0422AA
:1013D0000BA90E48FFF7DCFE00944FF40050CDE956
:1013E000044001940294039400030694CDE907405D
:1013F0000994694605480A94FFF776FD0348FFF70C
:101400009FFE1AB010BD0000002C01401400002007
:10141000FEE770470907090E002806DA00F00F0002
:1014200000F1E02080F8141D704700F1E02080F802
:101430000014704770477047FEF7DABF30B5A5B0AB
:10144000282116A8FEF7C9FE142120A8FEF7C5FE24
:1014500058216846FEF7C1FE01252804CDE9165043
:10146000002416A819951C94FFF75EFA0F2020900F
:10147000CDE921542394002120A82494FFF786F974
:10148000280300900D946846FFF736F825B030BD6C
:101490001448016841F4700101601348016841F08B
:1014A000010101604168114A114041600168104A20
:1014B00011400160016821F480210160416821F43C
:1014C000FE014160C16A21F00F01C162016B094A4E
:1014D00011400163002181600249C0038039086026
:1014E0007047000088ED00E0001002400CC07FF85B
:1014F000FFFFF6FECCFC00FF2DE9F0470268274B0A
:10150000274E284F284C294D4FF0804A984209D049
:10151000504507D0B04205D0B84203D0A04201D018
:10152000A84204D122F0700C4A6842EA0C02DFF8AB
:1015300080C0DFF88080DFF8809098420FD050455F
:101540000DD0B0420BD0B84209D0A04207D06045C0
:1015500005D0404503D0484501D0A84203D122F42C
:101560004076CA6832434E6922F0800232430260FC
:101570008A68C2620A688262984209D0A04207D093
:10158000604505D0404503D0484501D0A84201D16F
:101590000969016301214161BDE8F087002C014028
:1015A00000040040000800400034014000500140A9
:1015B00000400140004401400048014010B50123B3
:1015C000046A8B409C430462036A8A4013430362AB
:1015D00010BD10B5846842EA032224F47F440A4314
:1015E0002243826010BD826822F070020A4342F0FA
:1015F00007018160704700002DE9F047026A22F080
:1016000001020262056A436882691F4C25F00205E7
:1016100022400C6822F0030214438A681C4E2A43BD
:101620001A4D1C4FDFF870C0DFF87090DFF870A023
:10163000A84209D0B04207D0B84205D0604503D0D7
:10164000484501D0504506D122F00808CA6842EA50
:10165000080222F00402A84209D0B04207D0B842E2
:1016600005D0604503D0484501D0504505D14D69AE
:1016700023F440731D438B692B43436084614968A5
:1016800041630262BDE8F0878FFFFEFF002C01403E
:101690000034014000400140004401400048014046
:1016A00000500140F0B5026A22F010020262056AA1
:1016B000426883691C4C1E4E23400C6823F440731F
:1016C00043EA042425F020038D681A4F43EA0513EA
:1016D000164DA84203D0B04201D0B84207D1D1F88C
:1016E0000CC023F0800343EA0C1323F04003A8420C
:1016F0000CD0B0420AD0104DA84207D00F4DA842DE
:1017000004D00F4DA84201D0B84207D14D6922F450
:10171000406242EA85028D6942EA85024260846144
:10172000496881630362F0BDFF8FFFFE002C01401A
:10173000003401400050014000400140004401409D
:1017400000480140F0B5026A22F480720262056A24
:101750004268C3691C4C1E4E23400C6823F00303EF
:101760001C4325F400738D681A4F43EA0523174D77
:10177000A84203D0B04201D0B84207D1D1F80CC082
:1017800023F4006343EA0C2323F48063A8420CD0C3
:10179000B0420AD0104DA84207D0104DA84204D044
:1017A0000F4DA84201D0B84207D14D6922F44052F2
:1017B00042EA05128D6942EA05124260C461496835
:1017C000C1630362F0BD00008FFFFEFF002C0140EB
:1017D00000340140005001400040014000440140FD
:1017E0000048014030B5026A22F480520262046A65
:1017F0004268C369144D24F400542B400D6823F44F
:10180000407343EA05238D6844EA05340F4DA8422E
:101810000ED00F4DA8420BD00E4DA84208D00E4D51
:10182000A84205D00D4DA84202D00D4DA84204D1CA
:101830004D6922F4804242EA85124260C3614968E0
:101840000164046230BD0000FF8FFFFE002C0140E8
:101850000034014000400140004401400048014084
:101860000050014030B5026A22F480320262046AFC
:101870004268436D124D2B400D681D4324F4003324
:101880000C8943EA04430F4CA0420ED00E4CA042F8
:101890000BD00E4CA04208D00D4CA04205D00D4CF0
:1018A000A04202D00C4CA04204D14C6922F48032F8
:1018B00042EA04224260456549688165036230BDA1
:1018C0008FFFFEFF002C014000340140004001402A
:1018D00000440140004801400050014030B5026A18
:1018E00022F480120262046A4268436D134D24F4AC
:1018F00000142B400D6843EA05230D8944EA055482
:101900000F4DA8420ED00F4DA8420BD00E4DA8424D
:1019100008D00E4DA84205D00D4DA84202D00D4D65
:10192000A84204D14D6922F4802242EA8522426015
:1019300043654968C165046230BD0000FF8FFFFE4A
:10194000002C0140003401400040014000440140AF
:10195000004801400050014010B5036A046A24F0B9
:1019600001040462846924F0F00444EA021423F0C0
:101970000A020A438461026210BD10B5036A23F0B3
:10198000100303628369046A23F4704343EA02325A
:1019900024F0A00343EA01118261016210BDFEE759
:1019A00002E008C8121F08C1002AFAD17047704728
:1019B000002001E001C1121F002AFBD17047000086
:1019C00008B5FEF71DFDFFF739FD1948416941F4DF
:1019D00080014161416901F480010091416941F454
:1019E00000214161406900F400200090FFF7B2FC43
:1019F00000211048FFF77CFC04210E48FFF778FC1B
:101A00000C480E4C6421007B401CC2B20A48251DC4
:101A10008270037813FB02F3407810FB02F000BFE2
:101A2000B3FBF1F22260B0FBF1F22A60F8E70000AC
:101A3000001002401400002000000020342C01405F
:101A400002030405060708090A0B0C0D0E0F1010FF
:101A50000102030405060708090A0B0C0D0E0F10FE
:101A6000000000000000000001020304060708094E
:101A7000901A00080000002014000000A0190008BF
:101A8000A41A00081400002044040000B019000843
:101A900032500000010000001000000000000000B3
:041AA00000127A00B6
:040000050800019559
:00000001FF
