:020000040800F2
:10000000680400209D0100082B17000899140008BF
:100010002917000809020008AD1A000800000000B6
:10002000000000000000000000000000011A0008AD
:100030000B020008000000004D170008031A00081A
:10004000B7010008B7010008B7010008B7010008B0
:10005000B7010008B7010008B7010008B7010008A0
:10006000B7010008B7010008B7010008B701000890
:10007000B7010008B7010008B7010008B701000880
:10008000B7010008B7010008B7010008B701000870
:10009000B7010008B7010008B7010008B701000860
:1000A000B7010008B7010008B7010008B701000850
:1000B000B7010008B7010008B7010008B701000840
:1000C000B7010008B7010008B7010008B701000830
:1000D000B7010008B7010008B7010008B701000820
:1000E000B7010008B7010008B7010008B701000810
:1000F000B7010008B7010008B7010008B701000800
:10010000B7010008B7010008B7010008B7010008EF
:10011000B7010008B7010008B7010008B7010008DF
:10012000B7010008B7010008B7010008B7010008CF
:10013000B7010008B7010008B7010008B7010008BF
:10014000B7010008B7010008B7010008B7010008AF
:10015000B7010008B7010008B7010008B70100089F
:10016000B7010008B7010008B7010008B70100088F
:10017000B7010008B7010008B7010008000000003F
:10018000B7010008B7010008DFF80CD000F02AF82A
:1001900000480047CD1A0008680400200648804740
:1001A00006480047FEE7FEE7FEE7FEE7FEE7FEE75C
:1001B000FEE7FEE7FEE7FEE7691A0008890100088E
:1001C000D2B201E000F8012B491EFBD27047002299
:1001D000F6E710B513460A4604461946FFF7F0FF46
:1001E000204610BD064C074D06E0E06840F00103D4
:1001F00094E8070098471034AC42F6D3FFF7C8FFE5
:10020000341D0008541D0008FEE7704770B5044611
:1002100000F0F6F80546601C00D0641C00F0F0F811
:10022000401BA042FAD370BD2DE9F84FDFF898B11A
:1002300000234FF0010C4FF0030A4FF00F090BF1B0
:10024000040EB9E00CFA03F4224070D04D68022D80
:1002500001D0122D0ED1DD0800EB8508D8F8205012
:100260005E07F70E09FA07F6B5430E69BE402E4346
:10027000C8F8206007685E0091F804800AFA06F565
:1002800008F00308AF4308FA06F848EA0708C0F880
:1002900000804F68012F05D0022F03D0112F01D00D
:1002A000122F13D1D0F80880CF6828EA0508B7408C
:1002B00047EA08078760D0F804800F7928EA040825
:1002C000C7F300179F4047EA08074760D1F804804A
:1002D0006FEA0807BF0706D1C76AA743C8F3C0047F
:1002E0009C403C43C462C468AC438D68B540254320
:1002F000C5604C68E4005ED5344C256E45F00105C0
:100300002566246E23F0030504F001040094304CAC
:100310002E19B4689D072F0F09FA07F5AC43B0F109
:10032000904F05D02B4DA84204D101251CE042E09E
:10033000002519E0284DA84201D1022514E0274DDF
:10034000A84201D103250FE0254DA84201D1042583
:100350000AE0244DA84201D1052505E0224DA8421E
:1003600001D1062500E00725BD402543B560DBF837
:1003700000405D464E689443F60300D514432C605C
:10038000DEF8004075464E689443B60300D514432A
:100390002C600D4D08352C684E689443F60200D54C
:1003A00014432C60084D0C352C684E689443B602FB
:1003B00000D514432C605B1C0A6832FA03F57FF405
:1003C00041AFBDE8F88F000000040140001002407A
:1003D000000001400004004800080048000C0048EC
:1003E00000100048001400480018004842694A40C4
:1003F000426170470AB181617047816270470000B5
:1004000001480068704700001400002090F8412067
:10041000202A24D190F84020012A20D0012280F8FF
:100420004020242280F841200268136823F0010351
:1004300013600268136823F4805313600268136822
:100440000B43136001680A6842F001020A60202130
:1004500080F84110002180F84010084670470220C3
:10046000704790F84120202A22D190F84020012A9C
:100470001ED0012280F84020242280F8412002680A
:10048000136823F0010313600268136823F4706398
:1004900043EA0121116001680A6842F001020A6022
:1004A000202180F84110002180F840100846704754
:1004B0000220704770B5040004D094F84100002574
:1004C00010B106E0012070BD84F84050204600F0D5
:1004D00003FA242084F841002068016821F001011A
:1004E00001606068216820F07060086120688168A0
:1004F00021F400418160E0680128A06807D040F441
:10050000044021688860E068022803D006E040F4D7
:100510000040F6E721684FF40060486020684168B9
:10052000114A114341602068C16821F40041C16053
:10053000D4E904010843A16940EA01202168C860A8
:10054000D4E907010843216808602068016841F088
:10055000010101606564202084F84100256384F86E
:100560004250002070BD0000008000022DE9FC47D1
:1005700000260446019690F841001F46924689469F
:1005800020287ED120688069C043000479D594F882
:100590004000012875D0012084F84000242084F810
:1005A000410066644FF02008E068012809D029F472
:1005B000544040F4205021684860FFF721FF054671
:1005C0000DE0314949EA010030490840F3E7781C61
:1005D00005D0FFF715FF401BB84219D8C7B12168F5
:1005E00088698969C0F34010C1F300110843EED057
:1005F000206880693B46C043C0064FF000024FF0C0
:1006000020012046009517D500F0B0FF68BB09E037
:1006100084F8418054F8440F40F0200044F8040965
:10062000267022E02168C1F81C8084F8418084F89B
:1006300040600020BDE8FC8700F098FFA8B9216861
:100640001020C8612168C1F81C800198504512D162
:100650002068416841F4804141603B4600222021EE
:100660002046009500F082FF10B10120E2E708E08B
:100670002168C1F81C800198401C0190504593D31B
:10068000C6E70220D6E7000000200002FF23000298
:100690002DE9F84F044690F84100DDF828A01F46E8
:1006A00090468B4620287ED194F8400001287AD0CD
:1006B000012084F84000FFF7A3FE064601220090C7
:1006C0001923D103204600F051FFE0BB222084F81B
:1006D0004100102084F8420000256564C4F824809D
:1006E00067856563618D3148FF274FF080784FF053
:1006F0000079FF2903D927853A46009039E0618DBA
:10070000218500903AE05946204600F019FF13E099
:1007100000F058FFB8B92068406A616A0870606AE2
:10072000401C6062208D401E80B22085618D491E74
:100730006185618D01B168B1608D324600285146F6
:100740002046E5D100E002E000F07EFFD0B10120BC
:10075000BDE8F88F5346002280212046009600F025
:1007600005FF0028F3D1608DFF2804D927853A467C
:1007700000954346C7E7608D2085009594F82820B2
:100780004B46C0E721682020C86121684A68084BB1
:100790001A404A6084F8410084F8425084F840507E
:1007A0000020D5E7FFE70220D2E700000024008008
:1007B00000E800FE2DE9F84F044690F84100DDF80E
:1007C00028A01F4690468B4620287ED194F84000F2
:1007D00001287AD0012084F84000FFF711FE064678
:1007E000012200901923D103204600F0BFFEE0BB98
:1007F000212084F84100102084F84200002565641F
:10080000C4F8248067856563618D3148FF274FF008
:1008100080784FF00079FF2903D927853A46009068
:1008200039E0618D218500903AE05946204600F07C
:1008300087FE13E000F02EFFB8B9606A21680078E7
:100840008862606A401C6062608D401E6085208DF9
:10085000401E80B22085618D01B168B1608D324645
:10086000002851462046E5D100E002E000F0ECFE11
:10087000D0B10120BDE8F88F5346002280212046E8
:10088000009600F073FE0028F3D1608DFF2804D994
:1008900027853A4600954346C7E7608D2085009539
:1008A00094F828204B46C0E721682020C8612168C1
:1008B0004A68084B1A404A6084F8410084F8425064
:1008C00084F840500020D5E7FFE70220D2E700007F
:1008D0000020008000E800FE10B586B00446142118
:1008E0006846FFF774FC1349206888421FD1124CF8
:1008F000E06C40F00200E064E06C694600F0020049
:1009000005904FF440700090122001900120029059
:1009100003200390042004900848FFF785FCA06D95
:1009200040F40010A065A06D00F40010059006B022
:1009300010BD0000005400400010024000040048B8
:1009400002480168491C0160704700001400002043
:1009500010B50024032000F059F8002000F008F83A
:1009600008B1012401E000F01BF8204610BD000092
:1009700070B5054609484FF47A7100240068B0FB51
:10098000F1F000F075FD08B1012404E000222946D1
:10099000501E00F01BF8204670BD0000180000201B
:1009A000094808B5016E41F001010166016E01F0D0
:1009B00001010091816D41F080518165806D00F0F1
:1009C0008050009008BD000000100240F0B40E4BB3
:1009D0001B680C46C3F30223C3F10705042D00D99D
:1009E0000425191D072901D2002300E0DB1E012682
:1009F00006FA05F1491E214099409E40761E164098
:100A00003143F0BC00F092BE0CED00E0064900F06E
:100A1000070208684FF6FF03184040EA0220034A25
:100A200010430860704700000CED00E00000FA057C
:100A30001649B0F5007F0868C0F3412009D00228AC
:100A400005D0086820F4C06040F480600860002091
:100A500070470128FBD0086820F4C06040F40070A3
:100A600008600B483222006850430A4AB0FBF2F09B
:100A7000401C00E0401E4A69520501D50028F9D10A
:100A800048694005E3D5032070470000007000402E
:100A90001800002040420F000248006800F4C060C7
:100AA00070470000007000402DE9F84F0446002711
:100AB0000088E54D3E46010504F1200B1DD5606E12
:100AC00078B1B0F5800F11D0B0F5000F04D0B0F5BB
:100AD000400F22D001270FE0E86840F48030E86042
:100AE0001BE00021201D00F033FE03E000215846EA
:100AF00000F0C4FE070010D03E462088C00426D572
:100B0000A06EC0B1B0F1807F1AD0B0F1007F0DD0DF
:100B1000B0F1407F19D0012718E0D5F88800616E48
:100B200020F440000843C5F88800E6E7E86840F490
:100B30008030E86009E00021201D00F009FE03E09C
:100B40000021584600F09AFE0746F7B13E4620685D
:100B500080033AD5A86D4FF00008C00009D4A86DF5
:100B600040F08050A865A86D4FF0010800F080505B
:100B70000090DFF8D8A2DAF8001041F48071CAF8CA
:100B80000010FFF73DFC814610E0D5F88800A16E0B
:100B900020F040700843C5F88800D8E7FFF730FC24
:100BA000A0EB0900022801D9032705E0DAF80000CC
:100BB000C005F3D5002F7CD04FEA0706B8F1000F2F
:100BC00003D0A86D20F08050A8652078C00707D01A
:100BD000D5F88800A16B20F003000843C5F8880011
:100BE0002078800707D5D5F88800E16B20F00C004D
:100BF0000843C5F888002078400707D5D5F8880055
:100C0000216C20F030000843C5F8880020780007E8
:100C100007D5D5F88800616C20F0C0000843C5F8FE
:100C200088002078C00607D5D5F88800A16C20F48C
:100C300040700843C5F888002078800607D5D5F8AD
:100C40008800E16C20F440600843C5F888002088E3
:100C5000800507D5D5F88800E16D20F440200843D1
:100C6000C5F888002088400507D5D5F88800216E92
:100C700020F440100843C5F888002078400607D5C6
:100C8000D5F88800216D20F440500843C5F888004D
:100C90002078000607D5D5F88800616D20F4404023
:100CA0000843C5F888002088C00509D5D5F8880014
:100CB00000E01CE0A16D20F440300843C5F8880036
:100CC00020884FF0006780044FF080684FD5D5F83A
:100CD0008800E16E20F040600843C5F88800E06EAF
:100CE000B8423CD1E86840F48010E8603FE0D5F8B5
:100CF000900010F4407015D0D4F88410814211D0C7
:100D0000D5F89000D5F8901020F4407041F480316F
:100D1000C5F89010D5F8901021F48031C5F89010E6
:100D2000C5F89000C00710D0FFF76AFB074641F2F4
:100D3000883906E0FFF764FBC11B494501D903264A
:100D40003CE7D5F890008007F4D5D5F89000D4F8AA
:100D5000841020F440700843C5F890002EE7404509
:100D600005D10121201D00F0F3FC00B106462068EA
:100D7000000317D5D5F88800216F20F040600843A4
:100D8000C5F88800206FB84204D1E86840F48010AC
:100D9000E86007E0404505D10121201D00F0D8FCA6
:100DA00000B106462068400317D5D5F88800616F6A
:100DB00020F040600843C5F88800606FB84204D155
:100DC000E86840F48010E86007E0404505D1012163
:100DD000201D00F0BDFC00B10646208840041AD555
:100DE000D5F88800A16F20F040500843C5F888006E
:100DF000A06FB0F1805F03D0B0F1005F05D00AE0D2
:100E00000221201D00F0A4FC03E00221584600F05E
:100E100035FD00B106462088000407D5D5F88800C6
:100E2000E16F20F080400843C5F888002068C003C7
:100E300007D555F8880FD4F8801020F000400843FB
:100E400028603046BDE8F88F001002400070004076
:100E50002DE9F0470F46050058D03F4E306800F0AE
:100E60000700B84209D2306820F0070038433060EC
:100E7000306800F00700B84248D12878374CC007E6
:100E80002CD06868032811D0022812D0216898B1AC
:100E9000490500293ADAA16821F003010143A16064
:100EA000FFF7AEFA804641F2883910E021688901E7
:100EB000EFE721688903ECE78907EAE7FFF7A0FA83
:100EC000A0EB0801494502D90320BDE8F087A068DE
:100ED000696800F00C00B0EB810FEFD12878800733
:100EE00005D5A068A96820F0F0000843A06030682C
:100EF00000F00700B8420BD9306820F007003843F3
:100F00003060306800F00700B84201D00120DCE713
:100F10002878400705D5A068E96820F4E060084318
:100F2000A0602878000706D5A068296920F46050E1
:100F300040EAC100A06000F017F8A168084AC1F3B8
:100F40000311515C01F01F01C84006490860BDE86B
:100F5000F0470020FFF70CBD0020024000100240C7
:100F6000F41C00081800002070B52549002318461D
:100F70008A68CC6812F00C0204F00306214C4FEA98
:100F8000640509D00C2A05D0042A26D0082A00D1ED
:100F9000284670BD012E10D10B681B0704D4D1F870
:100FA0009430C3F3032302E00B68C3F30313164E1C
:100FB00056F823307AB10C2AEBD1C86800F003024E
:100FC000C868C0F30210401C022A08D0032A09D0C6
:100FD000B3FBF0F008E0184670BD204670BDB4FBCE
:100FE000F0F001E0B5FBF0F0CA68C968C2F3062270
:100FF0005043C1F34161491C4900B0FBF1F070BDA1
:10100000001002400024F400041D00082DE9F843FC
:1010100005007CD0FD4CA06800F00C06E06800F0F4
:1010200003072878C00661D576B10C2E01D1012FB7
:101030000AD0A8690028206878D040F0010020601C
:10104000FFF7DEF9804659E02068800702D5A869DD
:101050000028DED0286A2168090703D5216801F03D
:10106000F00104E0D4F89410F02202EA1111884251
:1010700015D900F087FC002849D1206840F008000D
:1010800020602068296A20F0F00008432060606832
:10109000E96920F47F4040EA0120606015E02068A3
:1010A00040F0080020602068296A20F0F000084322
:1010B00020606068E96920F47F4040EA01206060B8
:1010C000286A00F05FFC0028D6D1FFF74DFFA16829
:1010D000CF4AC1F30311515C01F01F01C840CD4953
:1010E00008600020FFF744FC00287DD12FE000BFFE
:1010F000FFF786F9A0EB0800022876D82068800761
:10110000F6D5206840F008002060206801E0BBE0D0
:101110000CE0296A20F0F000084320606068E9696B
:1011200020F47F4040EA0120606010E020F00100E0
:101130002060FFF765F9804606E000BFFFF760F921
:10114000A0EB08000228D8D820688007F6D42878B9
:10115000C00740D0082E18D00C2E01D1032F14D078
:101160006868B0F5803F17D0B0F5A02F206817D081
:1011700020F480302060206820F48020206068689F
:10118000E0B1FFF73DF9804614E02068800322D5E6
:101190006868002878D01EE0206840F48030EDE7D1
:1011A00040F480202060F7E7FFF72AF9A0EB080061
:1011B0006428A2D820688003F6D50CE0FFF720F958
:1011C000804605E0FFF71CF9A0EB0800642894D8DE
:1011D00020688003F6D4287880073BD5042E11D0F0
:1011E0000C2E04D1022F01E036E1A1E00AD0E8681C
:1011F000002820681ED040F480702060FFF700F9BE
:1012000007460CE0206840050CD5E8680028C1D0EE
:1012100008E000BFFFF7F4F8C01B022893D820684D
:101220004005F7D56068297C20F0F85040EA01605D
:1012300060600FE020F480702060FFF7E1F807465F
:1012400005E000BFFFF7DCF8C01B022870D820685B
:101250004005F7D42878000729D568690028D4F814
:10126000940012D040F00100C4F89400FFF7C8F8D1
:10127000074604E0FFF7C4F8C01B022858D8D4F88A
:1012800094008007F6D512E0EDE020F00100C4F8EC
:101290009400FFF7B5F8074605E000BFFFF7B0F888
:1012A000C01B022844D8D4F894008007F6D42878CC
:1012B000400768D5A06D0027C00008D4A06D40F09D
:1012C0008050A065A06D012700F08050009052482A
:1012D0000168C90512D40168814641F4807101603A
:1012E000FFF78EF8804605E0FFF78AF8A0EB0800CC
:1012F00002281DD8D9F80000C005F5D5A868012836
:1013000017D00528D4F8900018D020F00100C4F8B8
:101310009000D4F8900020F0040000BFC4F89000C2
:10132000A86841F28839D0B1FFF76AF8804611E029
:101330006BE0D4F8900040F00100EFE740F00400CB
:10134000C4F89000F5E700BFFFF75AF8A0EB0801DA
:1013500049455AD8D4F890008007F5D50EE0FFF73C
:101360004FF8804606E000BFFFF74AF8A0EB0801FF
:10137000494570D8D4F890008007F5D41FB1A06D0E
:1013800020F08050A065A86AF0B30C2E6BD0022824
:10139000206820F08070206004D0206810F0205F6A
:1013A00047D04AE0FFF72CF8064604E0FFF728F89C
:1013B000801B02284FD820688001F7D4286BE96A87
:1013C000000110380843696BAA6B0902120941EA4F
:1013D00042410843A98F114A490802EB4151084391
:1013E00095F840104908120102EB41610843E060A2
:1013F000206840F080702060E06840F08070E0601D
:10140000FEF7FEFF054610E02BE024E0001002404E
:10141000F41C000818000020007000400000E0FFED
:10142000FEF7EEFF401B022815D820688001F7D593
:1014300017E0E06820F00300E060E0680B49084036
:10144000E060FEF7DDFF054608E000BFFEF7D8FFCD
:10145000401B022802D90320BDE8F88320688001E0
:10146000F4D40020F8E70120F6E70000FFFFEEFECD
:1014700010B5401EB0F1807F01D3012010BD4FF0A8
:10148000E02460610F21601700F050F90020A06196
:1014900007202061002010BDFEE701688A69D24361
:1014A000920701D400228A6200688169C943C90792
:1014B00003D0816941F00101816170472DE9F0415C
:1014C0000446006890460E468069C043C00633D487
:1014D0000025202720688069C043800615D5701C30
:1014E000F8D0FEF78DFFA0EB0800B04201D8002E27
:1014F000F0D154F8440F40F0200044F8040967701C
:10150000A57025700120BDE8F08121681020C86118
:101510002068C7612046FFF7C0FF54F8440B4168BC
:10152000064A11404160206840F0040044F8200958
:101530006777A5772577E5E70020E4E700E800FE78
:10154000F0B50568059C68684FF48066064FC1F3E6
:10155000090106EA545641EA02413E431943B043A9
:10156000214308436860F0BDFF63FF032DE9F041AC
:101570001D4617460E460446DDF8188008E0681C34
:1015800006D0FEF73DFFA0EB0800A8420BD855B1EE
:101590002068806936EA000012D00020B842EED000
:1015A0000020BDE8F08154F8440F40F0200044F8DA
:1015B0000409202060700020A07020700120F0E756
:1015C0000120EBE72DE9F041002690460F46044646
:1015D000202525E0424639462046FFF76FFF78BBBD
:1015E00020688069C043800613D420688169C9439C
:1015F000490701D4218DC1B9C56154F8440B416834
:10160000104A1140416044F820696577A677267733
:1016100016E0FEF7F5FEA0EB0800B84208D83FB18F
:1016200020688069C0434007D4D40020BDE8F08121
:1016300054F8440F40F0200044F804096570267007
:101640000120F3E700E800FE70B516460D4604469B
:101650000DE0324629462046FFF730FF08B1012051
:1016600070BDFEF7CDFE801BA84207D835B12068BB
:101670008069C0438006ECD4002070BD54F8440F4C
:1016800040F0200044F80409202060700020A07081
:101690002070E4E770B516460D4604460FE032466A
:1016A00029462046FFF70AFF08B1012070BD681CDB
:1016B00005D0FEF7A5FE801BA84207D835B12068EB
:1016C0008069C0438007EAD4002070BD54F8440FFD
:1016D00040F0200044F80409202060700020A07031
:1016E0002070E2E70E4810B50C4901600D494160D9
:1016F00000210122C0E90212016141618161C161E1
:101700000162FEF7D7FE00210548FEF77FFEBDE827
:10171000104000210248FEF7A4BE00000054004023
:101720001C0000200E090020FEE770470907090E83
:10173000002806DA00F00F0000F1E02080F8141D08
:10174000704700F1E02080F80014704770470000F7
:101750002DE9F041444C05468846E06800268107A3
:1017600028680DD0E16801F00301814216D1A8B1CB
:10177000E0686968C0F30210401C88420ED120E086
:10178000012804D0022805D0032807D108E02168E9
:10179000890701E021684905002907DB01265FE090
:1017A0002168890302D421684903F5E7E1686A6882
:1017B0006FF00F0321F0730103EB02121143014399
:1017C000E160206820F080602060FEF719FE074687
:1017D00005E000BFFEF714FEC01B022837D82068C2
:1017E0000001F7D4B8F1000F18D0B8F1010F1ED0E6
:1017F000287D4FF07E41400801EB4060A96840EA37
:1018000001202169194A114008432061206840F0F5
:1018100080602060FEF7F4FD07461AE0A868E968DA
:101820000002090940EA41402169114AEBE7288A90
:101830001049400801EB4050A96840EA01202169A5
:101840000D4AE0E7FEF7DCFDC01B022801D90326A4
:1018500006E020680001F5D52069A96908432061E8
:101860003046BDE8F081000000100240FF80FFF923
:10187000FF80FDFF0000E0FFFF809FFF2DE9F041AA
:101880003D4C06468846E0680025810730680DD04B
:10189000E16801F00301814216D1A8B1E0687168E6
:1018A000C0F30210401C88420ED120E0012804D071
:1018B000022805D0032807D108E02168890701E044
:1018C00021684905002907DB012551E021688903CA
:1018D00002D421684903F5E7E16872686FF00F03ED
:1018E00021F0730103EB021211430143E160206810
:1018F00020F080502060FEF783FD074605E000BF22
:10190000FEF77EFDC01B022829D820688000F7D48E
:10191000B8F1000F15D0307C4FF07E41400801EB4C
:101920004060B16840EA01206169144A11400843EF
:101930006061206840F080502060FEF761FD07463E
:101940000FE0B068F1680002090940EA41406169AE
:101950000B4AEBE7FEF754FDC01B022801D9032513
:1019600006E020688000F5D5606971690843606110
:101970002846BDE8F081000000100240FF80FFF91A
:10198000FF80FDFFF8B51C4D06460024A86DC00081
:1019900002D5FFF781F80DE0A86D40F08050A865F2
:1019A000A86D00F080500090FFF776F8A96D21F047
:1019B0008051A965B0F5007F04D0802E07D94FF083
:1019C00003040AE0802E08D9A02E01D804E001D13A
:1019D000022402E0702E00D101240848016821F0A1
:1019E000070121430160006800F00700A04201D018
:1019F0000120F8BD0020F8BD001002400020024088
:101A00007047FEF79DBF10B5B8B0442122A8FEF77D
:101A1000DEFB142133A8FEF7DAFB88216846FEF7C7
:101A2000D6FB1020229000240120CDE9280470204C
:101A30002A902C9422A8FFF7E9FA0F20CDE933046D
:101A400035943694002133A83794FFF701FA4020EB
:101A5000149400906846FFF727F84FF40070FEF7E3
:101A6000E7FF38B010BD00000D48016841F4700177
:101A700001600C48016841F00101016000218160B2
:101A80000268094B1A4002608214C260026822F4A4
:101A90008022026081610249C0038039086070477A
:101AA00088ED00E000100240FFFFF6EAFEE702E0EA
:101AB00008C8121F08C1002AFAD1704770470020D9
:101AC00001E001C1121F002AFBD1704786B0FEF76A
:101AD0003FFFFFF798FF14216846FEF778FB664842
:101AE000C16C41F00201C164C16C01F002010591B9
:101AF000C16C41F00101C164C06CDFF8808100F06D
:101B000001004FF4604405900022214645464046BE
:101B1000FEF770FC0120CDE9004000200290039008
:101B200069462846FEF780FBFFF7DCFD544D012691
:101B30004FF40049A5F10C044FF4005A4FF4804BC8
:101B4000022371001A464F48FEF710FD90BB4FF07C
:101B5000904720213846FEF749FC4FF4FA70FEF713
:101B600055FB20213846FEF741FCA67042F2890160
:101B7000082000F0ABF80A21102000F0A7F842F28C
:101B80000201142000F0A2F80021192000F09EF8B4
:101B900040F20D211B2000F099F84FF4F8411E206F
:101BA00000F094F841F281411A2000F08FF80A20E9
:101BB000FEF72CFB761CF6B2802EC1D3304E4FF6CA
:101BC000FF77F61E2E496078C91E00F05DF8307868
:101BD000717807EA00200844A08028800A20FEF7D8
:101BE00015FB27496078C91E00F04EF830787178EF
:101BF00007EA0020084480B2A080688029888142DA
:101C000009D3DB2807D9012251464046FEF7F2FBF3
:101C1000012259462CE0814203D3D92801D2012266
:101C200015E081420ED3D8280CD2002251464046FE
:101C3000FEF7E0FB002259464046FEF7DBFB0022A0
:101C4000494615E0814208D2D92806D200225946D9
:101C50004046FEF7CFFB0122F2E78142B2D8DB28F3
:101C6000B0D9012259464046FEF7C4FB0122514635
:101C70004046FEF7BFFBA5E7001002400004004805
:101C80000C0000201C00002073B582B00D4D6424B0
:101C9000009428780E464100012302AA0A48FEF764
:101CA00089FD009428780223410032460648FEF759
:101CB000EFFC20214FF09040FEF798FB0A20FEF742
:101CC000A5FA7FBD000000201C000020074A08B5CF
:101CD0001070080A5070917064200090901F0323C8
:101CE000007841000248FEF765FD08BD06000020AF
:101CF0001C0000200000000000000000010203049E
:101D000006070809A0860100400D0300801A06009E
:101D100000350C0040420F0080841E0000093D0089
:101D200000127A000024F40000366E010048E80139
:101D3000006CDC02541D0008000000201C000000A4
:101D4000AE1A0008701D00081C0000204C040000A2
:101D5000BE1A00082A000000000000000000000079
:101D600000000000000000000000000000093D002D
:040000050800018965
:00000001FF
