:020000040800F2
:1000000060040020A90100081B110008D11000089D
:100010001911000815020008111200080000000064
:100020000000000000000000000000003F11000878
:1000300017020008000000003D11000841110008EF
:10004000C3010008C3010008C3010008C301000880
:10005000C3010008C3010008C3010008C301000870
:10006000C3010008C3010008C3010008C301000860
:10007000C3010008C3010008C3010008C301000850
:10008000C3010008C3010008C3010008C301000840
:10009000C3010008C3010008C3010008C301000830
:1000A000C3010008C3010008C3010008C301000820
:1000B000C3010008C3010008C3010008C301000810
:1000C000C3010008C3010008C3010008C301000800
:1000D000C3010008C3010008C3010008C3010008F0
:1000E000C3010008C3010008C3010008C3010008E0
:1000F000C3010008C3010008C3010008C3010008D0
:10010000C30100080000000000000000C301000857
:10011000C3010008C3010008C3010008C3010008AF
:10012000C3010008C3010008C3010008C30100089F
:10013000C3010008C3010008000000000000000027
:10014000C3010008C3010008C3010008000000004B
:10015000000000000000000000000000000000009F
:10016000C3010008C3010008C3010008C30100085F
:10017000C3010008C3010008C3010008C30100084F
:10018000C3010008C30100080000000000000000D7
:10019000C3010008DFF80CD000F02AF8004800473F
:1001A00031120008600400200648804706480047D6
:1001B000FEE7FEE7FEE7FEE7FEE7FEE7FEE7FEE717
:1001C000FEE7FEE7A911000895010008D2B201E0A0
:1001D00000F8012B491EFBD270470022F6E710B54C
:1001E00013460A4604461946FFF7F0FF204610BDA5
:1001F000064C074D06E0E06840F0010394E8070074
:1002000098471034AC42F6D3FFF7C8FF98120008A5
:10021000B8120008FEE770472DE9F84FDFF8A0B1EB
:10022000002301274FF0030A4FF00F090BF1040ED2
:10023000BEE000BF07FA03F63440220072D04C68DB
:10024000022C01D0122C12D1DC0800EB840CDCF85B
:1002500020405D07ED0E09FA05F824EA0804D1F8FC
:10026000108008FA05F848EA0408CCF82080D0F895
:1002700000805D0091F804C00AFA05F40CF0030C4C
:1002800028EA04080CFA05FC4CEA080CC0F800C087
:10029000D1F804C0BCF1010F08D0BCF1020F05D0A9
:1002A000BCF1110F02D0BCF1120F16D1D0F808C06A
:1002B000D1F80C802CEA040C08FA05F848EA0C087E
:1002C000C0F80880D0F804C02CEA060C0E79C6F3FA
:1002D00000169E4046EA0C064660C668A6438C6837
:1002E000AC403443C4604C68E40060D5354CA5692B
:1002F00045F00105A561A46923F0030504F001049C
:100300000094314C2E19B4689D074FEA157C09FA08
:100310000CF5AC43B0F1904F05D02C4DA84204D160
:1003200001251CE043E0002519E0294DA84201D138
:10033000022514E0274DA84201D103250FE0264DE8
:10034000A84201D104250AE0244DA84201D1052587
:1003500005E0234DA84201D1062500E0072505FA56
:100360000CF52543B560DBF800405D464E689443CC
:10037000F60300D514432C60DEF8004075464E6845
:100380009443B60300D514432C600D4D08352C68FA
:100390004E689443F60200D514432C60084D0C358A
:1003A0002C684E689443B60200D514432C605B1C45
:1003B0000A681446DA407FF43DAFBDE8F88F0000CC
:1003C0000004014000100240000001400004004809
:1003D00000080048000C00480010004800140048C5
:1003E00000180048014880687047000000000020A5
:1003F00090F84120202A24D190F84020012A20D0D2
:10040000012280F84020242280F8412002681368ED
:1004100023F0010313600268136823F48053136010
:10042000026813680B43136001680A6842F0010216
:100430000A60202180F84110002180F84010084611
:1004400070470220704790F84120202A22D190F86E
:100450004020012A1ED0012280F84020242280F86A
:1004600041200268136823F00103136002681368D7
:1004700023F4706343EA0121116001680A6842F0C5
:1004800001020A60202180F84110002180F840100C
:10049000084670470220704770B5040004D094F8F5
:1004A0004100002510B106E0012070BD84F84050E5
:1004B000204600F04DF8242084F8410020680168AF
:1004C00021F0010101606068216820F0706008611E
:1004D0002068816821F400418160E0680128A068FB
:1004E00007D040F4044021688860E068022803D007
:1004F00006E040F40040F6E721684FF400604860F1
:1005000020684168114A114341602068C16821F4A4
:100510000041C160D4E904010843A16940EA012017
:100520002168C860D4E90701084321680860206891
:10053000016841F0010101606564202084F84100F8
:10054000256384F84250002070BD00000080000246
:10055000F0B587B0044614216846FFF73EFE1B49FC
:10056000206888422FD11A4C606940F400206061F5
:10057000606900F400200590606940F4003060611B
:100580006069122600F40030059048150325012704
:10059000CDE90006CDE90275694604950D48FFF7DF
:1005A0003BFEA015CDE90006CDE90275694604952C
:1005B000B006FFF731FEE06940F08040E061E0699D
:1005C00000F08040059007B0F0BD000000780040CA
:1005D0000010024000080048024881680278114477
:1005E0008160704700000020074810B5016841F0A5
:1005F00010010160032000F061F8002000F006F80F
:1006000000F024F8002010BD0020024070B50D4D10
:1006100004464FF47A712878B1FBF0F00A49096872
:10062000B1FBF0F000F040FD48B9102C07D20022D9
:100630002146501E00F022F800206C6070BD0120A1
:1006400070BD0000000000200C0000200A4882B0AD
:10065000816941F001018161816901F0010100912D
:10066000C16941F08051C161C06900F080500090C3
:10067000072002B000F022B800100240F0B40E4B88
:100680001B680C46C3F30223C3F10705042D00D9F0
:100690000425191D072901D2002300E0DB1E0126D5
:1006A00006FA05F1491E214099409E40761E1640EB
:1006B0003143F0BC00F032BD0CED00E0064900F023
:1006C000070208684FF6FF03184040EA0220034A79
:1006D00010430860704700000CED00E00000FA05D0
:1006E0002DE9F84F044600689F4DC0036FD5E869B7
:1006F0000026C00008D4E86940F08050E861E8694D
:10070000012600F08050009098480168C90512D475
:100710000168804641F480710160FFF763FE07467F
:1007200005E000BFFFF75EFEC01B642835D8D8F88F
:100730000000C005F6D5286A10F4407053D0A18897
:1007400001F4407181424ED0286A4FF4803191FA11
:10075000A1F2B2FA82F29700854A4FF001081744DD
:1007600020F44070C7F8008491FAA1F1B1FA81F148
:1007700002EB81010023C1F800342862C00732D0A7
:10078000FFF730FE074641F2883A4FF0020907E0D2
:10079000FFF728FEC11B514502D90320BDE8F88FA1
:1007A00099FAA9F1B1FA81F141F040024846B8EB5B
:1007B000521F01D12A680CE090FAA0F2B2FA82F23C
:1007C00042F04002B0EB521F02D12A6A01E015E06C
:1007D0006A6A99FAA9F0B0FA80F000F01F0008FAEE
:1007E00000F10A42D4D0286A616820F440700843BE
:1007F00028621EB1E86920F08050E8612078C007C7
:1008000005D0286BA16820F00300084328632078F6
:10081000800705D5286BE16820F440300843286341
:100820002078400705D5286B216920F44020084333
:1008300028632078800605D5286BE16920F0100038
:10084000084328632068800305D56868616D20F43B
:100850008000084368602078400605D5286B216A2F
:1008600020F02000084328632068400305D5286B4A
:10087000616A20F04000084328632078000705D50E
:10088000286B616920F44010084328632078C00673
:1008900005D5286BA16920F440000843286320880F
:1008A000800505D56868216B20F400000843686066
:1008B0002078000605D5E86AA16A20F4F87008439C
:1008C000E8622088C00505D5E86AE16A20F478501E
:1008D0000843E8622088C00405D5286B616B20F4CA
:1008E0008070084328632088800405D5286B216C1C
:1008F00020F40070084328632068C00205D5286BE7
:10090000A16B20F08070084328632068800205D521
:10091000286BE16B20F000700843286320684002D8
:1009200005D5286B616C20F480600843286320683B
:10093000000205D5286BA16C20F4006008432863F1
:100940002068C00105D5286BE16C20F400500843F5
:1009500028632068800105D5286B216D20F40040B4
:1009600008432863002019E700100240007000408F
:10097000000042422DE9F0470F46050069D04A4E7B
:10098000306800F00700B84209D2306820F0070054
:1009900038433060306800F00700B84259D12878F9
:1009A000424C800705D56068A96820F0F000084334
:1009B00060602878C0073DD06968012001290DD00A
:1009C000022923D05FF0020393FAA3F2B2FA82F273
:1009D00042F02002520904D0226803E04FF40033B1
:1009E000F2E7626A93FAA3F3B3FA83F303F01F0307
:1009F000984002422DD0606820F0030008436060F8
:100A0000FFF7F0FC804641F288390CE04FF00073AC
:100A1000DAE700BFFFF7E6FCA0EB0801494502D981
:100A20000320BDE8F0876068696800F00C00B0EB57
:100A3000810FEFD1306800F00700B8420BD9306861
:100A400020F0070038433060306800F00700B842FB
:100A500001D00120E5E72878400705D56068E968FE
:100A600020F4E060084360602878000706D56068DD
:100A7000296920F4605040EAC100606000F01CF871
:100A80006168F02292FAA2F201F0F001B2FA82F269
:100A9000D140074A515CC840064908600020FFF772
:100AA000B5FD0020BDE7000000200240001002401C
:100AB000881200080C000020124B10B5596812482B
:100AC00001F00C02042A1CD0082A1AD14FF4701429
:100AD00094FAA4F401F47012B4FA84F4E2400B4CDA
:100AE000DB6AA25C0F2494FAA4F403F00F03B4FAB7
:100AF00084F4E340054CC9031034E35CB0FBF3F02D
:100B0000504310BD0010024000127A006812000825
:100B10002DE9F84F04007DD02078FA4DC0074FF042
:100B2000010637D068687704C0F38100012819D026
:100B30006868C0F38100022804D16868C0F3C1303E
:100B400002280FD06068B0F5803F24D010B1B0F516
:100B5000A02F2AD0286820F480302860286820F44C
:100B600080201BE097FAA7F0B0FA80F040F0200058
:100B7000400901D0286800E0686A97FAA7F1B1FA45
:100B800081F101F01F0106FA01F108424ED06068C0
:100B90000028C0D04AE0286840F4803028606068AF
:100BA00020B3FFF71FFC80460AE0286840F480204D
:100BB0002860F0E7FFF716FCA0EB0800642873D864
:100BC00097FAA7F0B0FA80F040F02000400901D079
:100BD000286800E0686A97FAA7F1B1FA81F101F09C
:100BE0001F0106FA01F10842E4D01FE0FFF7FAFB0B
:100BF000804605E0FFF7F6FBA0EB08006428DED88E
:100C000097FAA7F0B0FA80F040F02000400902D037
:100C1000286801E0B9E0686A97FAA7F1B1FA81F1B2
:100C200001F01F0106FA01F10842E3D12078DFF854
:100C3000D88280074FF0000A4FF002075DD5686840
:100C40004FF0F80B10F00C0F15D06868C0F381005E
:100C5000022804D16868C0F3C13001280BD0E068D5
:100C6000A0B396FAA6F0B0FA80F048F82060FFF73B
:100C7000B9FB814620E097FAA7F0B0FA80F040F087
:100C80002000400901D0286800E0686A97FAA7F1BF
:100C9000B1FA81F101F01F0106FA01F1084221D0F9
:100CA000E068012871D11DE056E100BFFFF79AFB13
:100CB000A0EB09000228A2D897FAA7F0B0FA80F0BA
:100CC00040F02000400902D0286801E016E0686A80
:100CD00097FAA7F1B1FA81F101F01F0106FA01F1CB
:100CE0000842E3D028689BFAABF22169B2FA82F29B
:100CF00020F0F80091400843286024E096FAA6F11D
:100D0000B1FA81F148F821A0FFF76CFB814605E0BC
:100D1000FFF768FBA0EB09000228CCD897FAA7F0F0
:100D2000B0FA80F040F02000400901D0286800E0CF
:100D3000686A97FAA7F1B1FA81F101F01F0106FA8A
:100D400001F10842E4D1207800076AD56069A0B3B8
:100D500096FAA6F0B0FA80F008EB8000C0F8806444
:100D6000FFF740FB814605E0FFF73CFBA0EB0900E5
:100D70000228A0D897FAA7F0B0FA80F040F06000FF
:100D8000B6EB501F02D128680CE073E197FAA7F088
:100D9000B0FA80F040F06000B7EB501F01D1286A34
:100DA00000E0686A97FAA7F1B1FA81F101F01F013A
:100DB00006FA01F21042D7D033E0FFE796FAA6F028
:100DC000B0FA80F008EB8000C0F880A4FFF70AFBBF
:100DD000814605E0FFF706FBA0EB090002289CD83E
:100DE00097FAA7F0B0FA80F040F06000B6EB501F21
:100DF00001D128680BE097FAA7F0B0FA80F040F034
:100E00006000B7EB501F01D1286A00E0686A97FACA
:100E1000A7F1B1FA81F101F01F0106FA01F21042C7
:100E2000D8D12078400774D5E8694FF00009C00098
:100E300009D4E86940F08050E861E8694FF00109A1
:100E400000F08050009031480168C90512D4016853
:100E500041F480710160FFF7C5FA834606E000BFE8
:100E6000FFF7C0FAA0EB0B00642875D8274800688C
:100E7000C005F5D5A06801280AD008B1052811D011
:100E8000286A20F001002862286A20F0040002E0AD
:100E9000286A40F001002862A068C8B3FFF7A2FAF0
:100EA00083460DE0286A40F004002862F0E700BFA6
:100EB000FFF798FAA0EB0B0141F2883081424BD842
:100EC00097FAA7F0B0FA80F040F04000B6EB501F60
:100ED00001D128680BE097FAA7F0B0FA80F040F053
:100EE0004000B7EB501F01D1286A00E0686A97FA0A
:100EF000A7F1B1FA81F101F01F0106FA01F21042E7
:100F0000D6D035E0001002400000424200700040A0
:100F100000E034E0FFF766FA834607E0FFF762FA85
:100F2000A0EB0B0141F28830814215D897FAA7F067
:100F3000B0FA80F040F04000B6EB501F01D12868B5
:100F40000CE097FAA7F0B0FA80F040F04000B7EB61
:100F5000501F02D1286A01E089E0686A97FAA7F178
:100F6000B1FA81F101F01F0106FA01F21042D5D168
:100F7000B9F1000F03D0E86920F08050E861A06962
:100F800080B36968C1F38101022973D04FF0807189
:100F90004F000228524609D091FAA1F0B0FA80F031
:100FA00048F82020FFF71EFA044664E091FAA1F009
:100FB000B0FA80F08A46C14648F82020FFF712FABE
:100FC000804605E0FFF70EFAA0EB080002284ED895
:100FD00097FAA7F0B0FA80F040F02000400902D064
:100FE000286801E05CE0686A97FAA7F1B1FA81F13C
:100FF00001F01F0106FA01F10842E3D1E86A616AD3
:1010000020F00F000843E862D4E90710084369683C
:1010100021F47611084368609AFAAAF0B0FA80F0D9
:1010200049F82060FFF7DEF9044604E0FFF7DAF93B
:10103000001B02281BD897FAA7F0B0FA80F040F006
:101040002000400901D0286800E0686A97FAA7F1FB
:10105000B1FA81F101F01F0106FA01F10842E5D071
:101060001EE000BFFFF7BEF9001B022803D90320D2
:10107000BDE8F88F16E097FAA7F0B0FA80F040F0DC
:101080002000400901D0286800E0686A97FAA7F1BB
:10109000B1FA81F101F01F0106FA01F10842E1D134
:1010A0000020E5E70120E3E710B5401EB0F1807FA6
:1010B00001D3012010BD4FF0E02460610F216017C3
:1010C00000F02CF80020A06107202061002010BD56
:1010D000FEE700000E4810B50C4901600D49416063
:1010E00000210122C0E90212016141618161C161F7
:1010F0000162FFF7D1F900210548FFF779F9BDE852
:10110000104000210248FFF79EB90000007800401F
:10111000100000200E090020FEE770470907090EA5
:10112000002806DA00F00F0000F1E02080F8141D1E
:10113000704700F1E02080F8001470477047704756
:10114000FFF74ABA30B5A5B0282116A8FFF745F831
:10115000142120A8FFF741F858216846FFF73DF811
:1011600001201990102002251A90C002CDE91C50D0
:101170004FF4E0100024CDE91E04169516A8FFF7E1
:10118000C7FC0F20CDE920056802CDE922400221ED
:1011900020A82494FFF7EEFB6804009009946846A9
:1011A000FFF79EFA25B030BD1448016841F4700184
:1011B00001601348016841F0010101604168114A72
:1011C000114041600168104A11400160016821F43A
:1011D00080210160416821F4FE014160C16A21F073
:1011E0000F01C162016B094A114001630021816056
:1011F0000249C003803908607047000088ED00E0B4
:10120000001002400CC07FF8FFFFF6FECCFC00FF90
:10121000FEE702E008C8121F08C1002AFAD1704791
:101220007047002001E001C1121F002AFBD1704766
:1012300008B5FFF7D9F9FFF785FF0A48416941F47E
:1012400000214161416901F400210091416941F4AB
:1012500000314161406900F400300090FFF73AFF2F
:10126000FEE700000010024002030405060708091B
:101270000A0B0C0D0E0F10100102030405060708DF
:10128000090A0B0C0D0E0F100000000000000000FA
:101290000102030406070809B81200080000002034
:1012A0001000000012120008C812000810000020F0
:1012B000500400002212000801000000100000008D
:0812C0000000000000127A009A
:040000050800019559
:00000001FF
