:020000040800F2
:1000000010050020A9010008231B00080D19000895
:10001000211B0008150200086525000800000000EB
:10002000000000000000000000000000471B000866
:100030001702000800000000451B0008491B0008CB
:10004000C3010008C3010008C3010008C301000880
:10005000C3010008C3010008C3010008C301000870
:10006000C3010008C3010008C3010008C301000860
:10007000C3010008C3010008C3010008C301000850
:10008000C3010008C3010008C3010008C301000840
:10009000C3010008C3010008C3010008C301000830
:1000A000C3010008C3010008C3010008151C0008B3
:1000B000C3010008211C0008C3010008C301000897
:1000C000C3010008C3010008C3010008C301000800
:1000D000C3010008C3010008C3010008C3010008F0
:1000E000C3010008C3010008C3010008C3010008E0
:1000F000C3010008C3010008C3010008C3010008D0
:10010000C30100080000000000000000C301000857
:10011000C3010008C3010008C3010008C3010008AF
:10012000C3010008C3010008C3010008C30100089F
:10013000C3010008C3010008000000000000000027
:10014000C3010008C3010008C3010008000000004B
:10015000000000000000000000000000000000009F
:10016000C3010008C3010008C3010008C30100085F
:10017000C3010008C3010008C3010008C30100084F
:10018000C3010008C30100080000000000000000D7
:10019000C3010008DFF80CD000F02AF8004800473F
:1001A00085250008100500200648804706480047BE
:1001B000FEE7FEE7FEE7FEE7FEE7FEE7FEE7FEE717
:1001C000FEE7FEE7AD1B000895010008D2B201E092
:1001D00000F8012B491EFBD270470022F6E710B54C
:1001E00013460A4604461946FFF7F0FF204610BDA5
:1001F000064C074D06E0E06840F0010394E8070074
:1002000098471034AC42F6D3FFF7C8FF2C260008FD
:100210004C260008FEE770472DE9F84FDFF8A0B143
:10022000002301274FF0030A4FF00F090BF1040ED2
:10023000BEE000BF07FA03F63440220072D04C68DB
:10024000022C01D0122C12D1DC0800EB840CDCF85B
:1002500020405D07ED0E09FA05F824EA0804D1F8FC
:10026000108008FA05F848EA0408CCF82080D0F895
:1002700000805D0091F804C00AFA05F40CF0030C4C
:1002800028EA04080CFA05FC4CEA080CC0F800C087
:10029000D1F804C0BCF1010F08D0BCF1020F05D0A9
:1002A000BCF1110F02D0BCF1120F16D1D0F808C06A
:1002B000D1F80C802CEA040C08FA05F848EA0C087E
:1002C000C0F80880D0F804C02CEA060C0E79C6F3FA
:1002D00000169E4046EA0C064660C668A6438C6837
:1002E000AC403443C4604C68E40060D5354CA5692B
:1002F00045F00105A561A46923F0030504F001049C
:100300000094314C2E19B4689D074FEA157C09FA08
:100310000CF5AC43B0F1904F05D02C4DA84204D160
:1003200001251CE043E0002519E0294DA84201D138
:10033000022514E0274DA84201D103250FE0264DE8
:10034000A84201D104250AE0244DA84201D1052587
:1003500005E0234DA84201D1062500E0072505FA56
:100360000CF52543B560DBF800405D464E689443CC
:10037000F60300D514432C60DEF8004075464E6845
:100380009443B60300D514432C600D4D08352C68FA
:100390004E689443F60200D514432C60084D0C358A
:1003A0002C684E689443B60200D514432C605B1C45
:1003B0000A681446DA407FF43DAFBDE8F88F0000CC
:1003C0000004014000100240000001400004004809
:1003D00000080048000C00480010004800140048C5
:1003E000001800480AB181617047816270470000BF
:1003F00001488068704700001000002002488168B2
:10040000027811448160704710000020074810B541
:10041000016841F010010160032000F06DF8002038
:1004200000F006F800F024F8002010BD0020024083
:1004300070B50D4D04464FF47A712878B1FBF0F099
:100440000A490968B1FBF0F000F07CFD48B9102CB6
:1004500007D200222146501E00F02EF800206C60CA
:1004600070BD012070BD0000100000201C000020A5
:100470000A4882B0816941F001018161816901F01E
:1004800001010091C16941F08051C161C06900F072
:1004900080500090072002B000F02EB800100240FB
:1004A00000F01F02012191404009800000F1E0208E
:1004B000C0F8001170470000F0B40E4B1B680C46EA
:1004C000C3F30223C3F10705042D00D90425191D28
:1004D000072901D2002300E0DB1E012606FA05F100
:1004E000491E214099409E40761E16403143F0BC83
:1004F00001F018BB0CED00E0064900F007020868A7
:100500004FF6FF03184040EA0220034A10430860F8
:10051000704700000CED00E00000FA052DE9F84FEF
:10052000044600689F4DC0036FD5E8690026C000EF
:1005300008D4E86940F08050E861E869012600F0DD
:100540008050009098480168C90512D4016880461F
:1005500041F480710160FFF74BFF074605E000BFE3
:10056000FFF746FFC01B642835D8D8F80000C00547
:10057000F6D5286A10F4407053D0A18801F4407178
:1005800081424ED0286A4FF4803191FAA1F2B2FA3A
:1005900082F29700854A4FF00108174420F440701A
:1005A000C7F8008491FAA1F1B1FA81F102EB81015F
:1005B0000023C1F800342862C00732D0FFF718FFCB
:1005C000074641F2883A4FF0020907E0FFF710FFB3
:1005D000C11B514502D90320BDE8F88F99FAA9F152
:1005E000B1FA81F141F040024846B8EB521F01D107
:1005F0002A680CE090FAA0F2B2FA82F242F04002CD
:10060000B0EB521F02D12A6A01E015E06A6A99FA3A
:10061000A9F0B0FA80F000F01F0008FA00F10A42D9
:10062000D4D0286A616820F44070084328621EB163
:10063000E86920F08050E8612078C00705D0286B79
:10064000A16820F00300084328632078800705D5BF
:10065000286BE16820F44030084328632078400785
:1006600005D5286B216920F44020084328632078B1
:10067000800605D5286BE16920F010000843286347
:100680002068800305D56868616D20F48000084308
:1006900068602078400605D5286B216A20F020008C
:1006A000084328632068400305D5286B616A20F061
:1006B0004000084328632078000705D5286B61694E
:1006C00020F44010084328632078C00605D5286B25
:1006D000A16920F44000084328632088800505D5DF
:1006E0006868216B20F400000843686020780006E9
:1006F00005D5E86AA16A20F4F8700843E86220880A
:10070000C00505D5E86AE16A20F478500843E8623C
:100710002088C00405D5286B616B20F480700843E5
:1007200028632088800405D5286B216C20F4007094
:10073000084328632068C00205D5286BA16B20F010
:100740008070084328632068800205D5286BE16B20
:1007500020F00070084328632068400205D5286B0C
:10076000616C20F48060084328632068000205D58E
:10077000286BA16C20F40060084328632068C00146
:1007800005D5286BE16C20F40050084328632068ED
:10079000800105D5286B216D20F4004008432863B3
:1007A000002019E7001002400070004000004242A3
:1007B0002DE9F0470F46050069D04A4E306800F039
:1007C0000700B84209D2306820F007003843306093
:1007D000306800F00700B84259D12878424C8007B1
:1007E00005D56068A96820F0F000084360602878AB
:1007F000C0073DD06968012001290DD0022923D00E
:100800005FF0020393FAA3F2B2FA82F242F02002FE
:10081000520904D0226803E04FF40033F2E7626A21
:1008200093FAA3F3B3FA83F303F01F039840024251
:100830002DD0606820F0030008436060FFF7D8FD0A
:10084000804641F288390CE04FF00073DAE700BFD0
:10085000FFF7CEFDA0EB0801494502D90320BDE812
:10086000F0876068696800F00C00B0EB810FEFD191
:10087000306800F00700B8420BD9306820F007005C
:1008800038433060306800F00700B84201D00120E2
:10089000E5E72878400705D56068E96820F4E0605E
:1008A000084360602878000706D56068296920F44D
:1008B000605040EAC100606000F04CF86168F022CE
:1008C00092FAA2F201F0F001B2FA82F2D140074AA4
:1008D000515CC840064908600020FFF7A9FD0020D0
:1008E000BDE700000020024000100240142600086E
:1008F0001C00002008480949006849684FF4E0627C
:1009000092FAA2F201F4E061B2FA82F2D140044A12
:10091000515CC840704700001C00002000100240DD
:100920002426000808480949006849684FF46052C5
:1009300092FAA2F201F46051B2FA82F2D140044A72
:10094000515CC840704700001C00002000100240AD
:1009500024260008124B10B55968124801F00C0209
:10096000042A1CD0082A1AD14FF4701494FAA4F463
:1009700001F47012B4FA84F4E2400B4CDB6AA25C1E
:100980000F2494FAA4F403F00F03B4FA84F4E340C0
:10099000054CC9031034E35CB0FBF3F0504310BDC9
:1009A0000010024000127A00F42500082DE9F84FEB
:1009B00004007DD02078FA4DC0074FF0010637D0F3
:1009C00068687704C0F38100012819D06868C0F313
:1009D0008100022804D16868C0F3C13002280FD01A
:1009E0006068B0F5803F24D010B1B0F5A02F2AD0B8
:1009F000286820F480302860286820F480201BE0DC
:100A000097FAA7F0B0FA80F040F02000400901D03A
:100A1000286800E0686A97FAA7F1B1FA81F101F05D
:100A20001F0106FA01F108424ED060680028C0D0CC
:100A30004AE0286840F480302860606820B3FFF7FF
:100A4000D7FC80460AE0286840F480202860F0E760
:100A5000FFF7CEFCA0EB0800642873D897FAA7F044
:100A6000B0FA80F040F02000400901D0286800E092
:100A7000686A97FAA7F1B1FA81F101F01F0106FA4D
:100A800001F10842E4D01FE0FFF7B2FC804605E028
:100A9000FFF7AEFCA0EB08006428DED897FAA7F0B9
:100AA000B0FA80F040F02000400902D0286801E050
:100AB000B9E0686A97FAA7F1B1FA81F101F01F0174
:100AC00006FA01F10842E3D12078DFF8D8828007E6
:100AD0004FF0000A4FF002075DD568684FF0F80B41
:100AE00010F00C0F15D06868C0F38100022804D103
:100AF0006868C0F3C13001280BD0E068A0B396FA53
:100B0000A6F0B0FA80F048F82060FFF771FC81464B
:100B100020E097FAA7F0B0FA80F040F020004009FA
:100B200001D0286800E0686A97FAA7F1B1FA81F16C
:100B300001F01F0106FA01F1084221D0E068012806
:100B400071D11DE056E100BFFFF752FCA0EB090098
:100B50000228A2D897FAA7F0B0FA80F040F020005F
:100B6000400902D0286801E016E0686A97FAA7F108
:100B7000B1FA81F101F01F0106FA01F10842E3D058
:100B800028689BFAABF22169B2FA82F220F0F800F1
:100B900091400843286024E096FAA6F1B1FA81F169
:100BA00048F821A0FFF724FC814605E0FFF720FC70
:100BB000A0EB09000228CCD897FAA7F0B0FA80F091
:100BC00040F02000400901D0286800E0686A97FAE8
:100BD000A7F1B1FA81F101F01F0106FA01F1084213
:100BE000E4D1207800076AD56069A0B396FAA6F030
:100BF000B0FA80F008EB8000C0F88064FFF7F8FBE3
:100C0000814605E0FFF7F4FBA0EB09000228A0D81D
:100C100097FAA7F0B0FA80F040F06000B6EB501FF2
:100C200002D128680CE073E197FAA7F0B0FA80F0DF
:100C300040F06000B7EB501F01D1286A00E0686AFD
:100C400097FAA7F1B1FA81F101F01F0106FA01F25A
:100C50001042D7D033E0FFE796FAA6F0B0FA80F062
:100C600008EB8000C0F880A4FFF7C2FB814605E0D6
:100C7000FFF7BEFBA0EB090002289CD897FAA7F06B
:100C8000B0FA80F040F06000B6EB501F01D1286848
:100C90000BE097FAA7F0B0FA80F040F06000B7EBF5
:100CA000501F01D1286A00E0686A97FAA7F1B1FAEB
:100CB00081F101F01F0106FA01F21042D8D120782B
:100CC000400774D5E8694FF00009C00009D4E8690D
:100CD00040F08050E861E8694FF0010900F0805071
:100CE000009031480168C90512D4016841F480714F
:100CF0000160FFF77DFB834606E000BFFFF778FB4E
:100D0000A0EB0B00642875D827480068C005F5D50E
:100D1000A06801280AD008B1052811D0286A20F05F
:100D200001002862286A20F0040002E0286A40F0EE
:100D300001002862A068C8B3FFF75AFB83460DE0A4
:100D4000286A40F004002862F0E700BFFFF750FB7C
:100D5000A0EB0B0141F2883081424BD897FAA7F003
:100D6000B0FA80F040F04000B6EB501F01D1286887
:100D70000BE097FAA7F0B0FA80F040F04000B7EB34
:100D8000501F01D1286A00E0686A97FAA7F1B1FA0A
:100D900081F101F01F0106FA01F21042D6D035E0D0
:100DA00000100240000042420070004000E034E0C9
:100DB000FFF71EFB834607E0FFF71AFBA0EB0B01D2
:100DC00041F28830814215D897FAA7F0B0FA80F046
:100DD00040F04000B6EB501F01D128680CE097FAB4
:100DE000A7F0B0FA80F040F04000B7EB501F02D1FE
:100DF000286A01E089E0686A97FAA7F1B1FA81F1FF
:100E000001F01F0106FA01F21042D5D1B9F1000F2D
:100E100003D0E86920F08050E861A06980B3696878
:100E2000C1F38101022973D04FF080714F00022875
:100E3000524609D091FAA1F0B0FA80F048F820208B
:100E4000FFF7D6FA044664E091FAA1F0B0FA80F018
:100E50008A46C14648F82020FFF7CAFA804605E0D6
:100E6000FFF7C6FAA0EB080002284ED897FAA7F0C1
:100E7000B0FA80F040F02000400902D0286801E07C
:100E80005CE0686A97FAA7F1B1FA81F101F01F01FD
:100E900006FA01F10842E3D1E86A616A20F00F0026
:100EA0000843E862D4E907100843696821F4761121
:100EB000084368609AFAAAF0B0FA80F049F8206016
:100EC000FFF796FA044604E0FFF792FA001B0228A7
:100ED0001BD897FAA7F0B0FA80F040F02000400944
:100EE00001D0286800E0686A97FAA7F1B1FA81F1A9
:100EF00001F01F0106FA01F10842E5D01EE000BF33
:100F0000FFF776FA001B022803D90320BDE8F88F0B
:100F100016E097FAA7F0B0FA80F040F02000400900
:100F200001D0286800E0686A97FAA7F1B1FA81F168
:100F300001F01F0106FA01F10842E1D10020E5E7C6
:100F40000120E3E710B5401EB0F1807F01D30120FE
:100F500010BD4FF0E02460610F21601700F0E2FD4A
:100F60000020A06107202061002010BD704770475D
:100F70007047000030B590F83C20012A40D0012293
:100F800080F83C20CA688B6822F440721A434B6890
:100F900022F480621A430B6822F400621A430B6940
:100FA00022F480521A434B6922F400521A438B6A8E
:100FB00022F480421A4322F400421A430B8B22F49B
:100FC000702242EA03420F4D03680024AB4205D071
:100FD0000D4DAB4202D00D4DAB420CD18D8C22F4A5
:100FE000700242EA0552CD6922F080722A43096AF2
:100FF00022F000720A435A6480F83C40002030BD61
:10100000022030BD002C014000340140005001405E
:1010100030B590F83C20012A22D0012280F83C20F3
:101020000268536894680F4DAA4205D00E4DAA423B
:1010300002D00E4DAA4203D123F470054B682B4316
:1010400023F070050B6889682B4324F0800421434A
:10105000536002689160002180F83C10084630BD62
:10106000022030BD002C01400034014000500140FE
:1010700010B5040003D094F83D0010B107E0012042
:1010800010BD002084F83C00204600F00DF802203E
:1010900084F83D00211D206800F0C8FD012084F87F
:1010A0003D00002010BD000010B586B0044614219C
:1010B0006846FFF792F81F4A21681F4891420ED1F7
:1010C000816941F4006181618069002200F400605F
:1010D000059011461B20FFF7EFF91B2025E0174A6A
:1010E000914224D1C16941F00201C161C16901F09D
:1010F00002010591416941F40031416140690021DB
:1011000000F400300590402000900220CDE901015C
:10111000CDE9031069464FF09040FFF77DF80022BB
:1011200011461D20FFF7C8F91D20FFF7B9F906B0D9
:1011300010BD0000002C01400010024000040040DF
:1011400070B5044690F83C00012817D0012584F8BA
:101150003C50022084F83D0022689068364E3040B2
:1011600020F47F4090600868502839D00DDC20289A
:101170005BD005DC98B3102843D153E0022070BD4A
:10118000302855D040283CD141E0602830D070282C
:101190000CD0B0F5805F03D0B0F5005F31D112E024
:1011A00020688168244A7032114016E0CB68D1E98A
:1011B0000121206800F0A7FD21688868304040F0D8
:1011C000770088601DE0CB68D1E90121206800F03C
:1011D0009AFD2068816841F48041816011E01EE041
:1011E000CA684968206800F091FF5021206806E035
:1011F000CA684968206800F0D7FF6021206800F0C5
:101200008CFD84F83D50002084F83C0070BDCA6815
:101210004968206800F07AFF40212068EFE700214C
:101220002068ECE710212068E9E720212068E6E744
:1012300030212068E3E7000088FFFEFF10B5007F43
:10124000012816D100210B4800F0B7FA0A4CA08003
:10125000FFF750FB00EE100AB8EE400A84ED020AD8
:10126000A08800EE900AF8EE600A80EE201A84ED65
:10127000031A10BD60000020000000202DE9F0419D
:10128000044690F83C000D4601283DD0012684F824
:101290003C60022084F83D00AAB3042A46D02068AE
:1012A000082A55D0D5E90027E968036A23F480535A
:1012B0000362D0F81CC0036A2CF4407C4CEA072778
:1012C0004FF6FF7C27F470470CEA013139434FF4A5
:1012D000204723F4204307EA02321A43C161026225
:1012E0002068C16921F44061C1612068C169AA68B0
:1012F00041EA0221C0F81C1084F83D60002084F807
:101300003C00BDE8F08101E00220FAE7D5E90012D7
:10131000EB68206800F00CFF2068816921F00C0167
:10132000816120688169AA6811430FE0D5E9001244
:10133000EB68206800F04AFF2068816921F4406171
:10134000816120688169AA6841EA02218161D3E74D
:10135000D5E9002C2F7B016A21F480710162C169FB
:10136000036A21F0030141EA0C0121F0F00C390776
:101370004FF420674CEA116123F4206307EA02224C
:101380001A43C16102622068C16921F00C01C16188
:101390002068C169AA681143ACE710B5040003D006
:1013A00094F83D0010B107E0012010BD002084F842
:1013B0003C00204600F00CF8022084F83D00211D7E
:1013C000206800F033FC012084F83D00002010BDAF
:1013D000704710B50268044631B1042908D00829C5
:1013E00015D00C2908D116E0D06840F0020002E0C8
:1013F000D06840F00400D0600122206800F078FC42
:101400002068016841F001010160002010BDD06832
:1014100040F00800EFE7D06840F01000EBE770B54F
:101420000446006801694FF00005C943890715D4D7
:10143000C168C943890711D4E91E016101202077E1
:10144000206880698007204602D0FFF7F7FE04E09D
:1014500000F0D0F8204600F07EF925772068016979
:10146000C943490717D4C168C943490713D46FF06A
:1014700004010161022020772068806910F4407F18
:10148000204602D0FFF7DAFE04E000F0B3F8204671
:1014900000F061F9257720680169C943090716D46E
:1014A000C168C943090712D46FF008010161042023
:1014B00020772068C0698007204602D0FFF7BEFE73
:1014C00004E000F097F8204600F045F92577206801
:1014D0000169C943C90617D4C168C943C90613D4F1
:1014E0006FF010010161082020772068C06910F4B6
:1014F000407F204602D0FFF7A1FE04E000F07AF81A
:10150000204600F028F9257720680169C943C907FA
:1015100008D1C168C943C90704D1891E01612046A9
:1015200000F04AF920680169C943090609D4C16875
:10153000C943090605D46FF0800101612046FFF719
:1015400016FD20680169C943C90509D4C168C943AA
:10155000090605D46FF4807101612046FFF706FD8E
:1015600020680169C943490609D4C168C9434906CD
:1015700005D46FF040010161204600F061F9206858
:101580000169C94389060BD4C168C943890607D4D8
:101590006FF0200101612046BDE87040FFF7E8BC14
:1015A00070BD000010B586B0044614216846FEF7F1
:1015B00014FE0D492068884214D10C48416941F459
:1015C000002141614069002100F4002005900320C2
:1015D00000900220CDE90101CDE9031069460448DD
:1015E000FEF71AFE06B010BD002C014000100240AC
:1015F00000080048704770B5044690F83C000D465E
:1016000001280ED0012684F83C60022084F83D00B9
:101610000C2A45D007DC5AB1042A1BD0082A78D1FD
:101620002CE0022070BD102A4ED0142A71D15DE04A
:10163000206800F07BFB2068816941F0080181612E
:101640002068816921F004018161206881692A692B
:10165000114311E0206800F0BFFB2068816941F46C
:10166000006181612068816921F480618161206865
:1016700081692A6941EA022181614AE0206800F01B
:10168000FBFB2068C16941F00801C1612068C169A4
:1016900021F00401C1612068C1692A69114311E088
:1016A000206800F039FC2068C16941F40061C16123
:1016B0002068C16921F48061C1612068C1692A691B
:1016C00041EA0221C16124E0206800F065FC206845
:1016D000416D41F0080141652068416D21F0040130
:1016E00041652068416D2A69114311E0206800F0CE
:1016F0008FFC2068416D41F4006141652068416DB7
:1017000021F4806141652068416D2A6941EA022126
:10171000416584F83D60002084F83C0070BD10B540
:10172000040003D094F83D0010B107E0012010BD83
:10173000002084F83C00204600F00CF8022084F8D9
:101740003D00211D206800F071FA012084F83D0061
:10175000002010BD7047704710B504460068012294
:1017600000F0C6FA0E48216881420ED00D48814231
:101770000BD00D48814208D00C48814205D00C485E
:10178000814202D00B48814203D1486C40F40040B2
:1017900048642068016841F001010160002010BD2B
:1017A000002C014000340140004001400044014051
:1017B0000048014000500140704790F83C30002242
:1017C000012B0AD0012380F83C3041B1042909D013
:1017D00008290AD00C290DD10AE0022070470168BF
:1017E0004A6B07E001688A6B04E00168CA6B01E09C
:1017F00001680A6C002180F83C101046704770B5F3
:10180000044690F83C00012818D0012584F83C508B
:10181000022084F83D00204600F038FC2068C168B2
:1018200021F04001C1602068C16821F48041C1609D
:1018300084F83D50002084F83C0070BD022070BD4B
:10184000704710B5040003D094F8690010B107E0A8
:10185000012010BD002084F86800204600F026F822
:10186000242084F869002068016821F001010160EA
:10187000204600F059FD0128EBD0606A10B12046E7
:1018800000F0BFFC2068416821F49041416020686D
:10189000816821F02A0181602068016841F001011E
:1018A00001602046BDE8104000F00FBD10B586B0C5
:1018B000044614216846FEF790FC124920688842CD
:1018C0001ED11148C16941F40031C161C16901F4FF
:1018D00000310591416941F4003141614069694637
:1018E00000F4003005900C200090022001900020B0
:1018F00002900390072004904FF09040FEF78CFC7C
:1019000006B010BD0044004000100240FEE7000099
:1019100030B587B014216846FEF75FFC1F48416967
:1019200041F400214161416901F4002105914169BF
:1019300041F480014161416901F4800105914169EF
:1019400041F400314161416901F40031059141697F
:1019500041F48021416140694FF0904500F48020BE
:101960000590002220212846FEF73CFD4FF4005050
:1019700000900B480024CDE9010469460948FEF7B0
:101980004BFC202000900120CDE901046946284647
:101990000394FEF741FC07B030BD00000010024088
:1019A000000021100008004810B59AB000241794D8
:1019B000189415941694129413941C210BA8149443
:1019C000FEF70BFC2C216846FEF707FC2448234950
:1019D00001600121C0E9011440F69F71C0E90314C0
:1019E00044618461FFF744FB4FF48050159015A9C2
:1019F0001B48FFF7A5FB1A48FFF791FE12941394BA
:101A000012A917481494FFF703FB6020CDE90B04DB
:101A10000D940E940F94109400220BA91048119469
:101A2000FFF7E9FD04220BA90D48FFF7E4FD009440
:101A30004FF40050CDE90440019402940394000354
:101A40000694CDE907400994694605480A94FFF7D2
:101A500091FA0348FFF7A6FD1AB010BD002C014013
:101A60002000002030B591B0002409940A940B9412
:101A7000142104A80C94FEF7B0FB1D480D940F949C
:101A80000E94009401940294184901250394C0E92E
:101A900000154FF6E851C0E9024104618461FFF787
:101AA000E7FA2803099009A91148FFF749FB1048F4
:101AB000FFF773FC042004905020CDE9050404A92D
:101AC0000B480894FFF79BFE0D940DA908480F944E
:101AD000FFF79EFACDE900450294002269460448CA
:101AE0000394FFF7CBFB11B030BD000000040040B1
:101AF000600000200948084901604FF41641416028
:101B0000002181600C22C160C0E904128161C161C1
:101B100001624162FFF795BE00440040A000002032
:101B2000FEE770470907090E002806DA00F00F00EB
:101B300000F1E02080F8141D704700F1E02080F8EB
:101B40000014704770477047FEF758BC30B5A5B019
:101B5000282116A8FEF741FB142120A8FEF73DFB23
:101B600058216846FEF739FB01252804CDE91650B7
:101B7000002416A819951C94FEF718FF0F20CDE934
:101B80002005A802CDE92240002120A82494FEF7D8
:101B90000FFE05480F94039400900D946846FEF7DD
:101BA000BDFC25B030BD00000210200014480168C3
:101BB00041F4700101601348016841F001010160C6
:101BC0004168114A114041600168104A11400160AA
:101BD000016821F480210160416821F4FE01416027
:101BE000C16A21F00F01C162016B094A1140016312
:101BF000002181600249C0038039086070470000FD
:101C000088ED00E0001002400CC07FF8FFFFF6FEF8
:101C1000CCFC00FF0148FFF702BC000020000020C0
:101C20000148FFF7FCBB0000600000202DE9F047F1
:101C30000268274B274E284F284C294D4FF0804AE9
:101C4000984209D0504507D0B04205D0B84203D0E1
:101C5000A04201D0A84204D122F0700C4A6842EAA6
:101C60000C02DFF880C0DFF88080DFF880909842B7
:101C70000FD050450DD0B0420BD0B84209D0A04291
:101C800007D0604505D0404503D0484501D0A84263
:101C900003D122F44076CA6832434E6922F08002B2
:101CA000324302608A68C2620A688262984209D03E
:101CB000A04207D0604505D0404503D0484501D03B
:101CC000A84201D10969016301214161BDE8F087A2
:101CD000002C014000040040000800400034014096
:101CE00000500140004001400044014000480140D4
:101CF00010B50123046A8B409C430462036A8A4046
:101D00001343036210BD10B5846842EA032224F431
:101D10007F440A432243826010BD826822F0700231
:101D20000A4342F007018160704700002DE9F04747
:101D3000026A22F001020262056A436882691F4C4E
:101D400025F0020522400C6822F0030214438A6841
:101D50001C4E2A431A4D1C4FDFF870C0DFF87090FC
:101D6000DFF870A0A84209D0B04207D0B84205D031
:101D7000604503D0484501D0504506D122F00808FF
:101D8000CA6842EA080222F00402A84209D0B0421E
:101D900007D0B84205D0604503D0484501D0504532
:101DA00005D14D6923F440731D438B692B43436078
:101DB0008461496841630262BDE8F0878FFFFEFFDE
:101DC000002C01400034014000400140004401402B
:101DD0000048014000500140F0B5026A22F01002B4
:101DE0000262056A426883691C4C1E4E23400C68DF
:101DF00023F4407343EA042425F020038D681A4F2E
:101E000043EA0513164DA84203D0B04201D0B842B0
:101E100007D1D1F80CC023F0800343EA0C1323F060
:101E20004003A8420CD0B0420AD0104DA84207D0BF
:101E30000F4DA84204D00F4DA84201D0B84207D19F
:101E40004D6922F4406242EA85028D6942EA8502C8
:101E500042608461496881630362F0BDFF8FFFFEC9
:101E6000002C01400034014000500140004001407E
:101E70000044014000480140F0B5026A22F480723B
:101E80000262056A4268C3691C4C1E4E23400C68FE
:101E900023F003031C4325F400738D681A4F43EAB3
:101EA0000523174DA84203D0B04201D0B84207D154
:101EB000D1F80CC023F4006343EA0C2323F48063BD
:101EC000A8420CD0B0420AD0104DA84207D0104D05
:101ED000A84204D00F4DA84201D0B84207D14D69A5
:101EE00022F4405242EA05128D6942EA051242602C
:101EF000C4614968C1630362F0BD00008FFFFEFF4B
:101F0000002C0140003401400050014000400140DD
:101F1000004401400048014030B5026A22F480527A
:101F20000262046A4268C369144D24F400542B40D1
:101F30000D6823F4407343EA05238D6844EA0534B1
:101F40000F4DA8420ED00F4DA8420BD00E4DA84207
:101F500008D00E4DA84205D00D4DA84202D00D4D1F
:101F6000A84204D14D6922F4804242EA85124260BF
:101F7000C36149680164046230BD0000FF8FFFFE49
:101F8000002C014000340140004001400044014069
:101F9000004801400050014030B5026A22F480320E
:101FA0000262046A4268436D124D2B400D681D4366
:101FB00024F400330C8943EA04430F4CA0420ED0B2
:101FC0000E4CA0420BD00E4CA04208D00D4CA042AB
:101FD00005D00D4CA04202D00C4CA04204D14C695B
:101FE00022F4803242EA04224260456549688165F4
:101FF000036230BD8FFFFEFF002C01400034014022
:1020000000400140004401400048014000500140B0
:1020100030B5026A22F480120262046A4268436D9B
:10202000134D24F400142B400D6843EA05230D8959
:1020300044EA05540F4DA8420ED00F4DA8420BD0D4
:102040000E4DA84208D00E4DA84205D00D4DA84215
:1020500002D00D4DA84204D14D6922F4802242EAFB
:102060008522426043654968C165046230BD000055
:10207000FF8FFFFE002C0140003401400040014072
:1020800000440140004801400050014030B4046861
:10209000A26822F070034A681A431B4B1A400B686F
:1020A0001343A3604A6812F00F0F1FD11211082AC0
:1020B0001CD2DFE802F01B1B1B1B0B1D23040B694A
:1020C000D1E90221006830BCFFF71DBE0268136A27
:1020D000146A24F00104146202689469096924F006
:1020E000F00444EA011191610068036230BC70475A
:1020F0000A698968006830BC00F008B80A69896814
:10210000006830BC00F050B8F8FFFEFF10B5036A5D
:10211000046A24F001040462846924F0F00444EAAF
:10212000021423F00A020A438461026210BD000017
:1021300070B5046A24F0010404628469056A144ECF
:10214000B04211D0B0F1804F0ED0124EB0420BD041
:10215000114EB04208D0114EB04205D0104EB042E0
:1021600002D0104EB04203D124F00304144301E026
:1021700044F001041A0724F0F00444EA126225F046
:102180000A0301F00A0119438261016270BD000077
:10219000002C0140000400400008004000340140D1
:1021A000004001400050014010B5036A23F01003C5
:1021B00003628369046A23F4704343EA023224F021
:1021C000A00343EA01118261016210BD30B5046AC7
:1021D00024F0100404628469056A24F4407444EA1B
:1021E000022222F470444FF6FF7202EA03322243C5
:1021F000A02425F0A00304EA0111194382610162C1
:1022000030BD90F82410C90706D001684A68836A77
:1022100022F400321A434A6090F82410890706D548
:1022200001684A68C36A22F480321A434A6090F80F
:102230002410490706D501684A68036B22F48022FE
:102240001A434A6090F82410090706D501684A68C5
:10225000436B22F400421A434A6090F82410C906E6
:1022600006D501688A68836B22F480521A438A601B
:1022700090F82410890606D501688A68C36B22F499
:1022800000521A438A6090F82410490611D501685B
:102290004A68036C22F480121A434A60016CB1F55B
:1022A000801F06D101684A68436C22F4C0021A43B9
:1022B0004A6090F82410090606D501684A68806CC7
:1022C00022F4002202434A607047F8B50026044613
:1022D000C666FEF78DF80546206800686FF07E47F9
:1022E000000708D52B4600224FF400112046009726
:1022F00000F006F960B92068006840070AD52B464F
:1023000000224FF480012046009700F0F9F808B150
:102310000320F8BD202084F8690084F86A0084F85E
:1023200068600020F8BD00002DE9F041044610204F
:102330002369A268E6691A436369002133431A439B
:1023400023680D461E68654F3E4016431E60226896
:102350005368E66823F4405333435360236AA26909
:102360001A4323689E6826F4306616439E605C4FCD
:1023700022685C4B0603BA420CD11B6B13F00303BB
:1023800006D0012B4DD0022B4DD0032B4CD146E073
:10239000012049E0544FBA420CD11B6B13F4403377
:1023A0003BD0B3423DD0B3F5003F3CD0B3F5403F06
:1023B0003AD134E04D4FBA420DD11B6B13F4402398
:1023C0002BD0B3F5802F2CD0B3F5002F2BD0B3F545
:1023D000402F29D123E0464FBA420DD11B6B13F495
:1023E00040131AD0B3F5801F1BD0B3F5001F1AD0CD
:1023F000B3F5401F18D112E03E4FBA4214D11B6B07
:1024000013F4400309D0B3F5800F0AD0B3F5000FE1
:1024100009D0B3F5400F07D101E0002004E002200D
:1024200002E0042000E00820E7694FF400439F42E7
:1024300027D109281ED2DFE800F00508131D161D5C
:102440001D1D1900FEF756FA01E0FEF76BFA410078
:10245000D4F8040001EB5001B1FBF0F081B20AE0C6
:1024600025496068F6E7FEF775FAF0E7606806EB65
:102470005001F1E7012521F00F00C1F342010843AB
:102480001CE0092825D2DFE800F005080B24102401
:1024900024241C00FEF72EFA09E0FEF743FA06E0BA
:1024A0001649606801EB50010EE0FEF753FA014651
:1024B000606801EB5001B1FBF0F080B22168C860A8
:1024C00008E0606803EB5001B1FBF0F080B2D0602F
:1024D00000E001252846BDE8F0810000F369FFEF28
:1024E0000038014000100240004400400048004015
:1024F000004C0040005000400024F40000127A001C
:102500002DE9F041984617460E460446069D1DE00B
:10251000681C1BD02DB1FDF76BFFA0EB0800A84293
:1025200014D92068016821F4D071016020688168A5
:1025300021F001018160202084F8690084F86A009C
:10254000002084F868000320BDE8F0812068C0699D
:1025500036EA000004D00020B842D9D00020F3E7CA
:102560000120F9E7FEE702E008C8121F08C1002AAF
:10257000FAD170477047002001E001C1121F002A04
:10258000FBD17047FDF742FFFFF7E0FAFFF7C0F914
:10259000FFF768FAFFF7AEFAFFF706FA00211248D4
:1025A000FEF717FF104800214038FFF7D5F80E4816
:1025B00004214038FFF7D0F80B480D4C4038642117
:1025C000007B401CC2B20948251D8270037813FBB2
:1025D00002F3407810FB02F0B3FBF1F22260B0FB93
:1025E000F1F22A60F8E700006000002000000020FF
:1025F000342C014002030405060708090A0B0C0DE0
:102600000E0F10100102030405060708090A0B0C3F
:102610000D0E0F1000000000000000000102030476
:102620000607080900000000010203044C26000808
:102630000000002020000000662500086C2600082D
:1026400020000020F0040000762500083250000031
:102650000000000000000000000000000100000079
:0C266000100000000000000000127A00D2
:040000050800019559
:00000001FF
