:020000040800F2
:1000000038050020A9010008BF1E00083D1D00089A
:10001000BD1E0008770200085924000800000000F7
:10002000000000000000000000000000E31E0008C7
:100030007902000800000000E11E0008E51E00082B
:10004000C3010008C3010008C3010008C301000880
:10005000C3010008C3010008C3010008C301000870
:10006000C3010008C3010008C3010008C301000860
:10007000C3010008C3010008C3010008C301000850
:10008000C3010008C3010008C3010008C301000840
:10009000C3010008C3010008C3010008C301000830
:1000A000C3010008C3010008C3010008C301000820
:1000B000C3010008BD1F0008C3010008C3010008F8
:1000C000C3010008C3010008C3010008C301000800
:1000D000C3010008C3010008C3010008C3010008F0
:1000E000C3010008C3010008C3010008C3010008E0
:1000F000C3010008C3010008C3010008C3010008D0
:10010000C30100080000000000000000C301000857
:10011000C3010008C3010008C3010008C3010008AF
:10012000C3010008C3010008C3010008C30100089F
:10013000C3010008C3010008000000000000000027
:10014000C3010008C3010008C3010008000000004B
:10015000000000000000000000000000000000009F
:10016000C3010008C3010008C3010008C30100085F
:10017000C3010008C3010008C3010008C30100084F
:10018000C3010008C30100080000000000000000D7
:10019000C3010008DFF80CD000F02AF8004800473F
:1001A00079240008380500200648804706480047A3
:1001B000FEE7FEE7FEE7FEE7FEE7FEE7FEE7FEE717
:1001C000FEE7FEE7551F000895010008D2B201E0E6
:1001D00000F8012B491EFBD270470022F6E710B54C
:1001E00013460A4604461946FFF7F0FF204610BDA5
:1001F000064C074D06E0E06840F0010394E8070074
:1002000098471034AC42F6D3FFF7C8FF002500082A
:100210002025000870B504460068816801F00301DC
:10022000012926D10168C90723D0816801F00D0199
:10023000012910D1816841F0020181602168032009
:10024000086000F05DFD05460FE000BF00F058FDBE
:10025000401B022809D9606C40F010006064A06C5B
:1002600040F00100A064012070BD20688068C007D4
:10027000ECD1002070BDFEE770470000F0B5002310
:1002800002684FF0A04C3D4C95B01F46624501D12D
:1002900000940DE0A24202D1CDF800C008E0384D34
:1002A000384EAA4201D1009602E0B24214D1009524
:1002B00090F84050012D12D0012580F840509568EB
:1002C0006D0752D4009DAD686D074ED4624501D0D4
:1002D000A24206D12C4A05E0012015B0F0BD022053
:1002E000FBE72A4A0D6840F61F741DB39568466BFC
:1002F00025F4604545EA46354E6835439560056806
:10030000AE6806F00306012E02D12D68ED0731D14B
:10031000009DAD6805F00305012D03D1009D2D68FA
:10032000ED0727D10D6889680D439168A1430D43FE
:1003300095601FE0916821F46041916001688D68CB
:1003400005F00305012D02D10968C90712D10099F2
:10035000896801F00301012903D100990968C907DF
:1003600008D19168A143916004E0416C41F0200103
:100370004164012380F840701846AEE70001005048
:10038000000400500005005000030050000700501A
:10039000F0B595B00024009490F840202546012A3D
:1003A00019D0012780F8407003689A6852077CD4FE
:1003B0004A681F26052A11D2D3F830C002EB420248
:1003C000520096402CEA060C0E6896404CEA060C49
:1003D000C3F830C035E0022015B0F0BD0A2A0FD2B4
:1003E000D3F834C0521F02EB4202520096402CEA6E
:1003F000060C0E6896404CEA060CC3F834C020E0A8
:100400000F2A0FD2D3F838C00A3A02EB4202520048
:1004100096402CEA060C0E6896404CEA060CC3F88F
:1004200038C00EE0D3F83CC00F3A02EB4202520053
:1004300096402CEA060C0E6896404CEA060CC3F86F
:100440003CC00268936813F00C0F4FF0070374D19F
:10045000D1F800E0BEF10A0F10D39669AEF10A0E92
:100460000EEB4E0C03FA0CFE26EA0E06D1F808E05D
:100470000EFA0CFE46EA0E0696610FE0D2F814C0A2
:100480000EEB4E0603FA06FE2CEA0E0CD1F808E03D
:100490000EFA06FE4CEA0E0CC2F814C002684E6951
:1004A000D2F80CC0CCF3C10C00E0FDE04FEA4C0CDC
:1004B00006FA0CF6D1F810E0DFF848C2BEF1010FE1
:1004C00042D0BEF1020F4DD0BEF1030F58D0BEF1A5
:1004D000040F63D0166E91F800C006F0F846B6EB34
:1004E0008C6F03D1166E26F0004616660268566EB3
:1004F00091F800C006F0F846B6EB8C6F03D1566E4B
:1005000026F0004656660268966E91F800C006F026
:10051000F846B6EB8C6F03D1966E26F000469666D1
:100520000268D66E91F800C006F0F846B6EB8C6F04
:1005300003D1D66E26F00046D6660268966806F0AD
:100540000306012E3AD136E0D2F860E00EEA0C0E36
:1005500091F800C046EA8C664EEA060E4EF0004660
:100560001666EAE7D2F864E00EEA0C0E91F800C0D5
:1005700046EA8C664EEA060E4EF000465666DCE70A
:10058000D2F868E00EEA0C0E91F800C046EA8C66DC
:100590004EEA060E4EF000469666CEE7D2F86CE0C4
:1005A0000EEA0C0E91F800C046EA8C664EEA060E82
:1005B0004EF00046C0E71668F6077AD1CE68012EE5
:1005C00006D052F8B03F0E78B740BB43136021E02D
:1005D00052F8B06F91F800C007FA0CF73E4316606E
:1005E0000A680A2A0BD30668B769093A02EB420285
:1005F00093409F438B6893401F43B7610AE00768AD
:100600007E69521C02EB420293409E438B689340EA
:100610001E437E6103684FF0A0473B4EBB4201D0B2
:10062000B34201D1394A00E0394A0968102904D09F
:10063000112907D012290AD03BE0D2F808C04FEAAE
:100640000C2C08E0D2F808C04FEACC1C03E0D2F82A
:1006500008C04FEA4C2CBCF1000F2ADBBB420DD086
:10066000B34201D100970CE02A4EDFF8ACC0B34290
:1006700002D1CDF800C004E0634501D1009600E04E
:1006800000959E6806F00306012E02D11E68F6074B
:100690000AD1009E8EB1B66806F00306012E0CD179
:1006A000009E3668F60708D0416C41F02001416495
:1006B000012480F8405020468EE6102908D01129E8
:1006C0001AD01229F5D1916841F480019160F0E7C8
:1006D000BB42EED1916841F4000191600F49104A8C
:1006E0000968B1FBF2F101EB8101490000E0491E0C
:1006F00000910029FBD1DCE7BB42DAD1916841F0DF
:100700008071E3E700F0FF83000100500003005018
:100710000007005000040050000500501C0000209D
:1007200040420F00F0B54FF0000695B00400374688
:100730003546009605D0606CC00648D4606C18B190
:1007400033E0012015B0F0BDA5642565E56484F8AB
:100750004050204600F020F920688068C00024D472
:100760002046FFF757FD0646606CC0061DD4E6B96B
:10077000606C20F4885040F002006064206881685A
:1007800021F0405181602068816841F08051816092
:10079000784879490068B0FBF1F000EB8000400038
:1007A00000E0401E00900028FBD120688168C9004D
:1007B00002D5806880000AD5606C20F0020040F00D
:1007C00010006064A06C40F00100A0640126606C21
:1007D000C00671D4002E6FD12068816849076BD4A0
:1007E000616C21F4807141F0020161644FF0A04E10
:1007F000624B704501D0984201D1614A00E0614AE4
:10080000DFF884C16149704501D100930EE0984240
:1008100002D1CDF800E009E0884202D1CDF800C055
:1008200004E0604501D1009100E00095836803F089
:100830000303012B02D10068C00710D1009840B11A
:10084000806800F00300012803D100980068C00709
:1008500005D19068636820F4403018439060D4E973
:1008600002201043A26B012A02D04FF4805300E013
:100870000023E26943EA42331843636A3843012B99
:100880000AD1D2B1626C22F0020242F0200262640C
:10089000A26C42F00102A264E26A012A37D0236806
:1008A0008B4201D063452DD14FF430714FF4E07786
:1008B0008A420AD13A4627E052E0228D344B03EBBC
:1008C0004242024342F48030E6E74FF480739A429A
:1008D00001D10A4618E0BA4201D11A4614E0B2F535
:1008E0008A5F06D0B2F5845F06D0B2F5865F06D087
:1008F0000AE04FF4707207E04FF4A07204E04FF486
:10090000C07201E022F480520243206B1043216840
:100910008A6812F00C0F0AD1CA6844F202039A43A3
:10092000CA60A169626B890341EA420108432268F7
:10093000D168184B19400143D16020690128206813
:10094000016B21F00F0102D1226A521E1143016393
:10095000A564606C20F0020040F00100606406E0D5
:10096000606C20F0020040F0100060640126304608
:10097000E8E600001C00002040420F00000100508B
:100980000003005000070050000500500004005014
:100990000000FEFF07C0F0FF10B586B0044614212A
:1009A0006846FFF71AFC2068B0F1A04F1BD10F4832
:1009B000416941F080514161416901F080510591E7
:1009C000416941F4003141614069694600F40030F9
:1009D00005900120009003200190002002904FF02C
:1009E000904000F0A1F806B010BD000000100240D9
:1009F00070B54379012B1AD0012646710223037189
:100A000005682C6840F6FE7393409C43D1E90031A1
:100A10000B43934023432B6001680B68C024944030
:100A2000A3430B60067100214171084670BD02208E
:100A300070BD70B5040003D02079002510B105E029
:100A4000012070BD6571204600F008F80220207179
:100A5000256101202071002070BD000010B586B016
:100A6000044614216846FFF7B8FB11492068884204
:100A70001BD11048C16941F00051C161C16901F049
:100A800000510591416941F4003141614069694675
:100A900000F4003005901020009003200190002009
:100AA00002904FF0904000F03FF806B010BD0000FB
:100AB000007400400010024018B5046800940068FB
:100AC000104421B1143000900360002018BD08309C
:100AD000F9E730B54279012A12D00122427102238E
:100AE000037103681D6802FA01F425431D600029A3
:100AF00001680B6806D0C3F383430F2B0AD00DE0C7
:100B0000022030BDC3F383030F2B07D14B6843F0A2
:100B1000010302E04B6843F002034B6002710021C5
:100B20004171084630BD00002DE9F84FDFF8A0B153
:100B3000002301274FF0030A4FF00F090BF1040EB9
:100B4000BEE000BF07FA03F63440220072D04C68C2
:100B5000022C01D0122C12D1DC0800EB840CDCF842
:100B600020405D07ED0E09FA05F824EA0804D1F8E3
:100B7000108008FA05F848EA0408CCF82080D0F87C
:100B800000805D0091F804C00AFA05F40CF0030C33
:100B900028EA04080CFA05FC4CEA080CC0F800C06E
:100BA000D1F804C0BCF1010F08D0BCF1020F05D090
:100BB000BCF1110F02D0BCF1120F16D1D0F808C051
:100BC000D1F80C802CEA040C08FA05F848EA0C0865
:100BD000C0F80880D0F804C02CEA060C0E79C6F3E1
:100BE00000169E4046EA0C064660C668A6438C681E
:100BF000AC403443C4604C68E40060D5354CA56912
:100C000045F00105A561A46923F0030504F0010482
:100C10000094314C2E19B4689D074FEA157C09FAEF
:100C20000CF5AC43B0F1904F05D02C4DA84204D147
:100C300001251CE043E0002519E0294DA84201D11F
:100C4000022514E0274DA84201D103250FE0264DCF
:100C5000A84201D104250AE0244DA84201D105256E
:100C600005E0234DA84201D1062500E0072505FA3D
:100C70000CF52543B560DBF800405D464E689443B3
:100C8000F60300D514432C60DEF8004075464E682C
:100C90009443B60300D514432C600D4D08352C68E1
:100CA0004E689443F60200D514432C60084D0C3571
:100CB0002C684E689443B60200D514432C605B1C2C
:100CC0000A681446DA407FF43DAFBDE8F88F0000B3
:100CD00000040140001002400000014000040048F0
:100CE00000080048000C00480010004800140048AC
:100CF000001800480AB181617047816270470000A6
:100D00000148806870470000100000200248816898
:100D1000027811448160704710000020074810B528
:100D2000016841F010010160032000F06DF800201F
:100D300000F006F800F024F8002010BD002002406A
:100D400070B50D4D04464FF47A712878B1FBF0F080
:100D50000A490968B1FBF0F000F07CFD48B9102C9D
:100D600007D200222146501E00F02EF800206C60B1
:100D700070BD012070BD0000100000201C0000208C
:100D80000A4882B0816941F001018161816901F005
:100D900001010091C16941F08051C161C06900F059
:100DA00080500090072002B000F02EB800100240E2
:100DB00000F01F02012191404009800000F1E02075
:100DC000C0F8001170470000F0B40E4B1B680C46D1
:100DD000C3F30223C3F10705042D00D90425191D0F
:100DE000072901D2002300E0DB1E012606FA05F1E7
:100DF000491E214099409E40761E16403143F0BC6A
:100E000001F05EB80CED00E0064900F0070208684A
:100E10004FF6FF03184040EA0220034A10430860DF
:100E2000704700000CED00E00000FA052DE9F84FD6
:100E3000044600689F4DC0036FD5E8690026C000D6
:100E400008D4E86940F08050E861E869012600F0C4
:100E50008050009098480168C90512D40168804606
:100E600041F480710160FFF74BFF074605E000BFCA
:100E7000FFF746FFC01B642835D8D8F80000C0052E
:100E8000F6D5286A10F4407053D0A18801F440715F
:100E900081424ED0286A4FF4803191FAA1F2B2FA21
:100EA00082F29700854A4FF00108174420F4407001
:100EB000C7F8008491FAA1F1B1FA81F102EB810146
:100EC0000023C1F800342862C00732D0FFF718FFB2
:100ED000074641F2883A4FF0020907E0FFF710FF9A
:100EE000C11B514502D90320BDE8F88F99FAA9F139
:100EF000B1FA81F141F040024846B8EB521F01D1EE
:100F00002A680CE090FAA0F2B2FA82F242F04002B3
:100F1000B0EB521F02D12A6A01E015E06A6A99FA21
:100F2000A9F0B0FA80F000F01F0008FA00F10A42C0
:100F3000D4D0286A616820F44070084328621EB14A
:100F4000E86920F08050E8612078C00705D0286B60
:100F5000A16820F00300084328632078800705D5A6
:100F6000286BE16820F4403008432863207840076C
:100F700005D5286B216920F4402008432863207898
:100F8000800605D5286BE16920F01000084328632E
:100F90002068800305D56868616D20F480000843EF
:100FA00068602078400605D5286B216A20F0200073
:100FB000084328632068400305D5286B616A20F048
:100FC0004000084328632078000705D5286B616935
:100FD00020F44010084328632078C00605D5286B0C
:100FE000A16920F44000084328632088800505D5C6
:100FF0006868216B20F400000843686020780006D0
:1010000005D5E86AA16A20F4F8700843E8622088F0
:10101000C00505D5E86AE16A20F478500843E86223
:101020002088C00405D5286B616B20F480700843CC
:1010300028632088800405D5286B216C20F400707B
:10104000084328632068C00205D5286BA16B20F0F7
:101050008070084328632068800205D5286BE16B07
:1010600020F00070084328632068400205D5286BF3
:10107000616C20F48060084328632068000205D575
:10108000286BA16C20F40060084328632068C0012D
:1010900005D5286BE16C20F40050084328632068D4
:1010A000800105D5286B216D20F40040084328639A
:1010B000002019E70010024000700040000042428A
:1010C0002DE9F0470F46050069D04A4E306800F020
:1010D0000700B84209D2306820F00700384330607A
:1010E000306800F00700B84259D12878424C800798
:1010F00005D56068A96820F0F00008436060287892
:10110000C0073DD06968012001290DD0022923D0F4
:101110005FF0020393FAA3F2B2FA82F242F02002E5
:10112000520904D0226803E04FF40033F2E7626A08
:1011300093FAA3F3B3FA83F303F01F039840024238
:101140002DD0606820F0030008436060FFF7D8FDF1
:10115000804641F288390CE04FF00073DAE700BFB7
:10116000FFF7CEFDA0EB0801494502D90320BDE8F9
:10117000F0876068696800F00C00B0EB810FEFD178
:10118000306800F00700B8420BD9306820F0070043
:1011900038433060306800F00700B84201D00120C9
:1011A000E5E72878400705D56068E96820F4E06045
:1011B000084360602878000706D56068296920F434
:1011C000605040EAC100606000F04CF86168F022B5
:1011D00092FAA2F201F0F001B2FA82F2D140074A8B
:1011E000515CC840064908600020FFF7A9FD0020B7
:1011F000BDE700000020024000100240E824000883
:101200001C00002008480949006849684FF4E06262
:1012100092FAA2F201F4E061B2FA82F2D140044AF9
:10122000515CC840704700001C00002000100240C4
:10123000F824000808480949006849684FF46052DA
:1012400092FAA2F201F46051B2FA82F2D140044A59
:10125000515CC840704700001C0000200010024094
:10126000F8240008124B10B55968124801F00C021E
:10127000042A1CD0082A1AD14FF4701494FAA4F44A
:1012800001F47012B4FA84F4E2400B4CDB6AA25C05
:101290000F2494FAA4F403F00F03B4FA84F4E340A7
:1012A000054CC9031034E35CB0FBF3F0504310BDB0
:1012B0000010024000127A00C82400082DE9F84FFF
:1012C00004007DD02078FA4DC0074FF0010637D0DA
:1012D00068687704C0F38100012819D06868C0F3FA
:1012E0008100022804D16868C0F3C13002280FD001
:1012F0006068B0F5803F24D010B1B0F5A02F2AD09F
:10130000286820F480302860286820F480201BE0C2
:1013100097FAA7F0B0FA80F040F02000400901D021
:10132000286800E0686A97FAA7F1B1FA81F101F044
:101330001F0106FA01F108424ED060680028C0D0B3
:101340004AE0286840F480302860606820B3FFF7E6
:10135000D7FC80460AE0286840F480202860F0E747
:10136000FFF7CEFCA0EB0800642873D897FAA7F02B
:10137000B0FA80F040F02000400901D0286800E079
:10138000686A97FAA7F1B1FA81F101F01F0106FA34
:1013900001F10842E4D01FE0FFF7B2FC804605E00F
:1013A000FFF7AEFCA0EB08006428DED897FAA7F0A0
:1013B000B0FA80F040F02000400902D0286801E037
:1013C000B9E0686A97FAA7F1B1FA81F101F01F015B
:1013D00006FA01F10842E3D12078DFF8D8828007CD
:1013E0004FF0000A4FF002075DD568684FF0F80B28
:1013F00010F00C0F15D06868C0F38100022804D1EA
:101400006868C0F3C13001280BD0E068A0B396FA39
:10141000A6F0B0FA80F048F82060FFF771FC814632
:1014200020E097FAA7F0B0FA80F040F020004009E1
:1014300001D0286800E0686A97FAA7F1B1FA81F153
:1014400001F01F0106FA01F1084221D0E0680128ED
:1014500071D11DE056E100BFFFF752FCA0EB09007F
:101460000228A2D897FAA7F0B0FA80F040F0200046
:10147000400902D0286801E016E0686A97FAA7F1EF
:10148000B1FA81F101F01F0106FA01F10842E3D03F
:1014900028689BFAABF22169B2FA82F220F0F800D8
:1014A00091400843286024E096FAA6F1B1FA81F150
:1014B00048F821A0FFF724FC814605E0FFF720FC57
:1014C000A0EB09000228CCD897FAA7F0B0FA80F078
:1014D00040F02000400901D0286800E0686A97FACF
:1014E000A7F1B1FA81F101F01F0106FA01F10842FA
:1014F000E4D1207800076AD56069A0B396FAA6F017
:10150000B0FA80F008EB8000C0F88064FFF7F8FBC9
:10151000814605E0FFF7F4FBA0EB09000228A0D804
:1015200097FAA7F0B0FA80F040F06000B6EB501FD9
:1015300002D128680CE073E197FAA7F0B0FA80F0C6
:1015400040F06000B7EB501F01D1286A00E0686AE4
:1015500097FAA7F1B1FA81F101F01F0106FA01F241
:101560001042D7D033E0FFE796FAA6F0B0FA80F049
:1015700008EB8000C0F880A4FFF7C2FB814605E0BD
:10158000FFF7BEFBA0EB090002289CD897FAA7F052
:10159000B0FA80F040F06000B6EB501F01D128682F
:1015A0000BE097FAA7F0B0FA80F040F06000B7EBDC
:1015B000501F01D1286A00E0686A97FAA7F1B1FAD2
:1015C00081F101F01F0106FA01F21042D8D1207812
:1015D000400774D5E8694FF00009C00009D4E869F4
:1015E00040F08050E861E8694FF0010900F0805058
:1015F000009031480168C90512D4016841F4807136
:101600000160FFF77DFB834606E000BFFFF778FB34
:10161000A0EB0B00642875D827480068C005F5D5F5
:10162000A06801280AD008B1052811D0286A20F046
:1016300001002862286A20F0040002E0286A40F0D5
:1016400001002862A068C8B3FFF75AFB83460DE08B
:10165000286A40F004002862F0E700BFFFF750FB63
:10166000A0EB0B0141F2883081424BD897FAA7F0EA
:10167000B0FA80F040F04000B6EB501F01D128686E
:101680000BE097FAA7F0B0FA80F040F04000B7EB1B
:10169000501F01D1286A00E0686A97FAA7F1B1FAF1
:1016A00081F101F01F0106FA01F21042D6D035E0B7
:1016B00000100240000042420070004000E034E0B0
:1016C000FFF71EFB834607E0FFF71AFBA0EB0B01B9
:1016D00041F28830814215D897FAA7F0B0FA80F02D
:1016E00040F04000B6EB501F01D128680CE097FA9B
:1016F000A7F0B0FA80F040F04000B7EB501F02D1E5
:10170000286A01E089E0686A97FAA7F1B1FA81F1E5
:1017100001F01F0106FA01F21042D5D1B9F1000F14
:1017200003D0E86920F08050E861A06980B369685F
:10173000C1F38101022973D04FF080714F0002285C
:10174000524609D091FAA1F0B0FA80F048F8202072
:10175000FFF7D6FA044664E091FAA1F0B0FA80F0FF
:101760008A46C14648F82020FFF7CAFA804605E0BD
:10177000FFF7C6FAA0EB080002284ED897FAA7F0A8
:10178000B0FA80F040F02000400902D0286801E063
:101790005CE0686A97FAA7F1B1FA81F101F01F01E4
:1017A00006FA01F10842E3D1E86A616A20F00F000D
:1017B0000843E862D4E907100843696821F4761108
:1017C000084368609AFAAAF0B0FA80F049F82060FD
:1017D000FFF796FA044604E0FFF792FA001B02288E
:1017E0001BD897FAA7F0B0FA80F040F0200040092B
:1017F00001D0286800E0686A97FAA7F1B1FA81F190
:1018000001F01F0106FA01F10842E5D01EE000BF19
:10181000FFF776FA001B022803D90320BDE8F88FF2
:1018200016E097FAA7F0B0FA80F040F020004009E7
:1018300001D0286800E0686A97FAA7F1B1FA81F14F
:1018400001F01F0106FA01F10842E1D10020E5E7AD
:101850000120E3E710B5401EB0F1807F01D30120E5
:1018600010BD4FF0E02460610F21601700F028FBED
:101870000020A06107202061002010BD7047704744
:101880007047000030B590F83C20012A22D0012298
:1018900080F83C200268536894680F4DAA4205D036
:1018A0000E4DAA4202D00E4DAA4203D123F4700578
:1018B0004B682B4323F070050B6889682B4324F099
:1018C00080042143536002689160002180F83C103D
:1018D000084630BD022030BD002C014000340140DC
:1018E0000050014010B5040003D094F83D0010B141
:1018F00007E0012010BD002084F83C00204600F0E5
:101900000DF8022084F83D00211D206800F05CFBEA
:10191000012084F83D00002010BD000008B50068DB
:101920000B49884212D10B48C16941F00201C161E3
:10193000C069002200F00200009011461D20FFF750
:1019400043FABDE808401D20FFF732BA08BD000089
:1019500000040040001002400168CA6842F0010221
:10196000CA600068016841F0010101600020704711
:1019700070B5044690F83C00012817D0012584F882
:101980003C50022084F83D0022689068364E30407A
:1019900020F47F4090600868502839D00DDC202862
:1019A0005BD005DC98B3102843D153E0022070BD12
:1019B000302855D040283CD141E0602830D07028F4
:1019C0000CD0B0F5805F03D0B0F5005F31D112E0EC
:1019D00020688168244A7032114016E0CB68D1E952
:1019E0000121206800F052FB21688868304040F0F7
:1019F000770088601DE0CB68D1E90121206800F004
:101A000045FB2068816841F48041816011E01EE05F
:101A1000CA684968206800F04BFB5021206806E046
:101A2000CA684968206800F054FB6021206800F013
:101A300037FB84F83D50002084F83C0070BDCA6834
:101A40004968206800F034FB40212068EFE700215E
:101A50002068ECE710212068E9E720212068E6E70C
:101A600030212068E3E7000088FFFEFF704770B573
:101A70000446006801694FF00005C943890715D481
:101A8000C168C943890711D4E91E0161012020778B
:101A9000206880698007204602D0FFF7E7FF04E056
:101AA00000F0A7F8204600F0A5F825772068016926
:101AB000C943490717D4C168C943490713D46FF014
:101AC00004010161022020772068806910F4407FC2
:101AD000204602D0FFF7CAFF04E000F08AF8204653
:101AE00000F088F8257720680169C943090716D4F2
:101AF000C168C943090712D46FF0080101610420CD
:101B000020772068C0698007204602D0FFF7AEFF2B
:101B100004E000F06EF8204600F06CF825772068AD
:101B20000169C943C90617D4C168C943C90613D49A
:101B30006FF010010161082020772068C06910F45F
:101B4000407F204602D0FFF791FF04E000F051F8FB
:101B5000204600F04FF8257720680169C943C9077E
:101B600008D1C168C943C90704D1891E0161204653
:101B700000F042F820680169C943090609D4C16828
:101B8000C943090605D46FF0800101612046FFF7C3
:101B900076FE20680169C943C90509D4C168C943F3
:101BA000090605D46FF4807101612046FFF766FED7
:101BB00020680169C943490609D4C168C943490677
:101BC00005D46FF040010161204600F051F8206813
:101BD0000169C94389060BD4C168C943890607D482
:101BE0006FF0200101612046BDE87040FFF748BE5C
:101BF00070BD70477047000010B500681749184C59
:101C000088420FD12046A26801214068012A04D0F1
:101C1000B0F58070606004D004E000F58070606012
:101C200000E0A16000210F48FEF753FF94ED000A89
:101C300008220021BCEEC00A0A4810EE103AFEF756
:101C40003BFF94ED000ADFED080A20EE200ADFEDED
:101C5000070A20EE200A84ED030A10BD00040040AC
:101C6000000000207400002000404E450000803934
:101C7000704710B5040003D094F8690010B107E074
:101C8000012010BD002084F86800204600F026F8EE
:101C9000242084F869002068016821F001010160B6
:101CA000204600F0BBFA0128EBD0606A10B1204654
:101CB00000F021FA2068416821F4904141602068D9
:101CC000816821F02A0181602068016841F00101EA
:101CD00001602046BDE8104000F071BA10B586B032
:101CE000044614216846FEF778FA124920688842B3
:101CF0001ED11148C16941F40031C161C16901F4CB
:101D000000310591416941F4003141614069694602
:101D100000F4003005900C2000900220019000207B
:101D200002900390072004904FF09040FEF7FCFED5
:101D300006B010BD0044004000100240FEE7000065
:101D400030B589B000240694079418216846089499
:101D5000FEF743FA12484FF0A0410125C0E90014F4
:101D600084600461C4614462C0E90B54C4600562CC
:101D700004214463C0E905148463FEF7D3FC06A97B
:101D800007480694FEF77AFA00950394CDE90154CA
:101D90000494694602480594FEF7FAFA09B030BD8A
:101DA0002000002030B587B014216846FEF715FAF0
:101DB0001F48416941F400214161416901F400215A
:101DC0000591416941F480014161416901F480015B
:101DD0000591416941F400314161416901F40031EB
:101DE0000591416941F48021416140694FF090457E
:101DF00000F480200590002220212846FEF77AFF7B
:101E00004FF4005000900B480024CDE901046946CE
:101E10000948FEF789FE202000900120CDE9010449
:101E2000694628460394FEF77FFE07B030BD0000E8
:101E300000100240000021100008004810B588B0D2
:101E4000002412480094019402940394049405948D
:101E50000D49069401604F21C0E901141321C0E926
:101E600003148461FFF73EFD4FF4805000906946F3
:101E70000648FFF77DFD049404A904480694FFF783
:101E800001FD08B010BD00000004004088000020E3
:101E90000948084901604FF4164141600021816002
:101EA0000C22C160C0E904128161C161016241621A
:101EB000FFF7DFBE00440040C8000020FEE7704787
:101EC0000907090E002806DA00F00F0000F1E020F3
:101ED00080F8141D704700F1E02080F8001470476E
:101EE00070477047FEF712BF30B5A5B0282116A87D
:101EF000FEF773F9142120A8FEF76FF95821684600
:101F0000FEF76BF901252804CDE916500221CDE931
:101F10001C1019954FF4E0100024CDE91E0416A8FA
:101F2000FFF7CCF90F20CDE92005A802CDE922402A
:101F3000002120A82494FFF7C3F80548009040131F
:101F40000F940A9003946846FEF770FF25B030BDE9
:101F5000820020001448016841F4700101601348B8
:101F6000016841F0010101604168114A114041607E
:101F70000168104A11400160016821F4802101606C
:101F8000416821F4FE014160C16A21F00F01C16284
:101F9000016B094A11400163002181600249C003BD
:101FA000803908607047000088ED00E000100240B2
:101FB0000CC07FF8FFFFF6FECCFC00FF0148FFF7E6
:101FC00056BD0000880000202DE9F0470268274B2D
:101FD000274E284F284C294D4FF0804A984209D06F
:101FE000504507D0B04205D0B84203D0A04201D03E
:101FF000A84204D122F0700C4A6842EA0C02DFF8D1
:1020000080C0DFF88080DFF8809098420FD0504584
:102010000DD0B0420BD0B84209D0A04207D06045E5
:1020200005D0404503D0484501D0A84203D122F451
:102030004076CA6832434E6922F080023243026021
:102040008A68C2620A688262984209D0A04207D0B8
:10205000604505D0404503D0484501D0A84201D194
:102060000969016301214161BDE8F087002C01404D
:1020700000040040000800400034014000500140CE
:1020800000400140004401400048014010B5846810
:1020900042EA032224F47F440A432243826010BDB3
:1020A000826822F070020A4342F0070181607047A3
:1020B00010B5036A046A24F001040462846924F000
:1020C000F00444EA021423F00A020A438461026223
:1020D00010BD10B5036A23F0100303628369046A1C
:1020E00023F4704343EA023224F0A00343EA0111CF
:1020F0008261016210BD90F82410C90706D0016802
:102100004A68836A22F400321A434A6090F8241025
:10211000890706D501684A68C36A22F480321A43E7
:102120004A6090F82410490706D501684A68036B95
:1021300022F480221A434A6090F82410090706D539
:1021400001684A68436B22F400421A434A6090F8DF
:102150002410C90606D501688A68836B22F4805270
:102160001A438A6090F82410890606D501688A68A7
:10217000C36B22F400521A438A6090F82410490677
:1021800011D501684A68036C22F480121A434A6030
:10219000016CB1F5801F06D101684A68436C22F4D6
:1021A000C0021A434A6090F82410090606D5016857
:1021B0004A68806C22F4002202434A607047F8B5F6
:1021C00000260446C666FEF79BFD054620680068AB
:1021D0006FF07E47000708D52B4600224FF4001110
:1021E0002046009700F006F960B9206800684007B3
:1021F0000AD52B4600224FF480012046009700F0BC
:10220000F9F808B10320F8BD202084F8690084F8AB
:102210006A0084F868600020F8BD00002DE9F041F4
:10222000044610202369A268E6691A436369002105
:1022300033431A4323680D461E68654F3E401643DC
:102240001E6022685368E66823F4405333435360AA
:10225000236AA2691A4323689E6826F430661643EF
:102260009E605C4F22685C4B0603BA420CD11B6B2C
:1022700013F0030306D0012B4DD0022B4DD0032BBE
:102280004CD146E0012049E0544FBA420CD11B6BBF
:1022900013F440333BD0B3423DD0B3F5003F3CD0C4
:1022A000B3F5403F3AD134E04D4FBA420DD11B6BEC
:1022B00013F440232BD0B3F5802F2CD0B3F5002F8F
:1022C0002BD0B3F5402F29D123E0464FBA420DD190
:1022D0001B6B13F440131AD0B3F5801F1BD0B3F55A
:1022E000001F1AD0B3F5401F18D112E03E4FBA427A
:1022F00014D11B6B13F4400309D0B3F5800F0AD03F
:10230000B3F5000F09D0B3F5400F07D101E000206D
:1023100004E0022002E0042000E00820E7694FF416
:1023200000439F4227D109281ED2DFE800F00508AC
:10233000131D161D1D1D1900FEF764FF01E0FEF7B9
:1023400079FF4100D4F8040001EB5001B1FBF0F03B
:1023500081B20AE025496068F6E7FEF783FFF0E7FF
:10236000606806EB5001F1E7012521F00F00C1F391
:10237000420108431CE0092825D2DFE800F00508E7
:102380000B24102424241C00FEF73CFF09E0FEF778
:1023900051FF06E01649606801EB50010EE0FEF7C0
:1023A00061FF0146606801EB5001B1FBF0F080B2C3
:1023B0002168C86008E0606803EB5001B1FBF0F0F1
:1023C00080B2D06000E001252846BDE8F081000021
:1023D000F369FFEF00380140001002400044004064
:1023E00000480040004C0040005000400024F40031
:1023F00000127A002DE9F041984617460E46044631
:10240000069D1DE0681C1BD02DB1FEF779FCA0EBEA
:102410000800A84214D92068016821F4D071016035
:102420002068816821F001018160202084F8690022
:1024300084F86A00002084F868000320BDE8F08179
:102440002068C06936EA000004D00020B842D9D024
:102450000020F3E70120F9E7FEE702E008C8121FB9
:1024600008C1002AFAD170477047002001E001C17D
:10247000121F002AFBD170470EB5FEF74FFCFFF785
:1024800033FDFFF78FFCFFF75BFC00240D49009440
:1024900001940B48029408600846FEF7CAFA0094BB
:1024A0000022694607480194FEF7A2FAFFF7C6FC2E
:1024B000FFF7EEFC03481430FFF74EFAFEE700008A
:1024C0000074004074000020020304050607080998
:1024D0000A0B0C0D0E0F101001020304050607086D
:1024E000090A0B0C0D0E0F10000000000000000088
:1024F00001020304060708090000000001020304AA
:102500002025000800000020200000005A240008B8
:102510004025000820000020180500006A2400085B
:10252000000000400000000000000000000000006B
:1025300001000000100000000000000000127A00FE
:040000050800019559
:00000001FF
