:020000040800F2
:1000000068040020A901000887170008611400088F
:1000100085170008150200087D1800080000000080
:10002000000000000000000000000000AB17000806
:100030001702000800000000A9170008AD1700080B
:10004000C3010008C3010008C3010008C301000880
:10005000C3010008C3010008C3010008C301000870
:10006000C3010008C3010008C3010008C301000860
:10007000C3010008C3010008C3010008C301000850
:10008000C3010008C3010008C3010008C301000840
:10009000C3010008C3010008C3010008C301000830
:1000A000C3010008C3010008C3010008C301000820
:1000B000C3010008C3010008C3010008C301000810
:1000C000C3010008C3010008C3010008C301000800
:1000D000C3010008C3010008C3010008C3010008F0
:1000E000C3010008C3010008C3010008C3010008E0
:1000F000C3010008C3010008C3010008C3010008D0
:10010000C30100080000000000000000C301000857
:10011000C3010008C3010008C3010008C3010008AF
:10012000C3010008C3010008C3010008C30100089F
:10013000C3010008C3010008000000000000000027
:10014000C3010008C3010008C3010008000000004B
:10015000000000000000000000000000000000009F
:10016000C3010008C3010008C3010008C30100085F
:10017000C3010008C3010008C3010008C30100084F
:10018000C3010008C30100080000000000000000D7
:10019000C3010008DFF80CD000F02AF8004800473F
:1001A0009D1800086804002006488047064800475C
:1001B000FEE7FEE7FEE7FEE7FEE7FEE7FEE7FEE717
:1001C000FEE7FEE71518000895010008D2B201E02D
:1001D00000F8012B491EFBD270470022F6E710B54C
:1001E00013460A4604461946FFF7F0FF204610BDA5
:1001F000064C074D06E0E06840F0010394E8070074
:1002000098471034AC42F6D3FFF7C8FF88190008AE
:10021000A8190008FEE770472DE9F84FDFF8A0B1F4
:10022000002301274FF0030A4FF00F090BF1040ED2
:10023000BEE000BF07FA03F63440220072D04C68DB
:10024000022C01D0122C12D1DC0800EB840CDCF85B
:1002500020405D07ED0E09FA05F824EA0804D1F8FC
:10026000108008FA05F848EA0408CCF82080D0F895
:1002700000805D0091F804C00AFA05F40CF0030C4C
:1002800028EA04080CFA05FC4CEA080CC0F800C087
:10029000D1F804C0BCF1010F08D0BCF1020F05D0A9
:1002A000BCF1110F02D0BCF1120F16D1D0F808C06A
:1002B000D1F80C802CEA040C08FA05F848EA0C087E
:1002C000C0F80880D0F804C02CEA060C0E79C6F3FA
:1002D00000169E4046EA0C064660C668A6438C6837
:1002E000AC403443C4604C68E40060D5354CA5692B
:1002F00045F00105A561A46923F0030504F001049C
:100300000094314C2E19B4689D074FEA157C09FA08
:100310000CF5AC43B0F1904F05D02C4DA84204D160
:1003200001251CE043E0002519E0294DA84201D138
:10033000022514E0274DA84201D103250FE0264DE8
:10034000A84201D104250AE0244DA84201D1052587
:1003500005E0234DA84201D1062500E0072505FA56
:100360000CF52543B560DBF800405D464E689443CC
:10037000F60300D514432C60DEF8004075464E6845
:100380009443B60300D514432C600D4D08352C68FA
:100390004E689443F60200D514432C60084D0C358A
:1003A0002C684E689443B60200D514432C605B1C45
:1003B0000A681446DA407FF43DAFBDE8F88F0000CC
:1003C0000004014000100240000001400004004809
:1003D00000080048000C00480010004800140048C5
:1003E0000018004842694A40426170470AB1816181
:1003F00070478162704700000148806870470000C4
:100400000800002090F84120202A24D190F84020B4
:10041000012A20D0012280F84020242280F84120A7
:100420000268136823F0010313600268136823F461
:1004300080531360026813680B43136001680A68F5
:1004400042F001020A60202180F84110002180F86A
:100450004010084670470220704790F84120202A3B
:1004600022D190F84020012A1ED0012280F840209D
:10047000242280F841200268136823F001031360EE
:100480000268136823F4706343EA01211160016874
:100490000A6842F001020A60202180F84110002120
:1004A00080F84010084670470220704770B504007D
:1004B00004D094F84100002510B106E0012070BD81
:1004C00084F84050204600F00BFA242084F84100C4
:1004D0002068016821F0010101606068216820F056
:1004E000706008612068816821F400418160E068E3
:1004F0000128A06807D040F4044021688860E068C3
:10050000022803D006E040F40040F6E721684FF4EB
:100510000060486020684168114A114341602068CA
:10052000C16821F40041C160D4E904010843A16914
:1005300040EA01202168C860D4E907010843216826
:1005400008602068016841F00101016065642020B5
:1005500084F84100256384F84250002070BD0000FB
:10056000008000022DE9FC4700270446019790F81F
:10057000410099469246884620287CD120688069AF
:10058000C043000477D594F84000012873D00120BF
:1005900084F84000242084F8410067642025E06846
:1005A000012809D028F4544040F4205021684860C4
:1005B000FFF722FF064615E0304948EA01003049BE
:1005C0000840F3E7B9F1FF3F0CD0B9F1000F04D0B8
:1005D000FFF712FF811B494504D984F8415084F884
:1005E00040703FE020688169C943890607D580696A
:1005F000C043C00603D594F84100A028E2D120688A
:1006000080694B46C043C0064FF000024FF0200106
:10061000204600960BD500F089FF18BB2068C56105
:1006200084F8415084F840700020BDE8FC8700F059
:100630007DFFB8B921681020C8612068C5610198A4
:100640000246401C0190524511D12068416841F496
:10065000804141604B46002220212046009600F058
:1006600065FF10B10320E0E705E02068C56101994E
:10067000514594D3B1E70220D7E7000000200002E3
:10068000FF2300022DE9F84F044690F84100DDF801
:1006900028A01F4690468B4620287DD194F8400024
:1006A000012879D0012084F84000FFF7A5FE064616
:1006B000012200901923D103204600F037FF38BBF8
:1006C000222084F84100102084F84200002565644F
:1006D000C4F8248067856563618D3448FF274FF037
:1006E00080784FF00079FF2903D927853A4600909A
:1006F00032E0618D2185009033E05946204600F0BC
:10070000FFFE32E000F03CFF18B1606C042848D0D6
:1007100019E02068416A606A421C62620170208DA3
:10072000401E0004000C2085618DA1F1010161854E
:100730001BD1608DC8B1534600228021204600960F
:1007400000F0F4FE10B10320BDE8F88F608DFF28A3
:1007500004D927853A4600954346CEE7608D20852B
:10076000009594F828204B46C7E7608D3246002854
:1007700051462046C6D100F047FF0028C5D1216868
:100780002020C86121684A68094B1A404A6084F8F1
:10079000410084F8425000E005E084F84050002019
:1007A000D2E70120D0E70220CEE70000002400803D
:1007B00000E800FE2DE9F84F044690F84100DDF80E
:1007C00028A01F4690468B4620287CD194F84000F4
:1007D00001287FD0012084F84000FFF70DFE064677
:1007E000012200901923D103204600F09FFE38BB60
:1007F000212084F84100102084F84200002565641F
:10080000C4F8248067856563618D3348FF274FF006
:1008100080784FF00079FF2903D927853A46009068
:1008200031E0618D2185009032E05946204600F08C
:1008300067FE31E000F00FFF18B1606C042847D06C
:1008400018E0606A411C6162216800788862608DEE
:10085000401E6085208D401E0004000C20851BD1A9
:10086000608DC8B15346002280212046009600F0DA
:100870005DFE10B10320BDE8F88F608DFF2804D91C
:1008800027853A4600954346CFE7608D2085009541
:1008900094F828204B46C8E7608D32460028514620
:1008A0002046C7D100F0B0FE0028C6D12068202124
:1008B000C16120684368094A1340436084F84110CD
:1008C00084F8425000E005E084F840500020D2E770
:1008D0000120D0E70220CEE70020008000E800FEE3
:1008E000F0B587B0044614216846FFF776FC1B4933
:1008F000206888422FD11A4C606940F40020606162
:10090000606900F400200590606940F40030606187
:100910006069122600F40030059048150325012770
:10092000CDE90006CDE90275694604950D48FFF74B
:1009300073FCA015CDE90006CDE902756946049562
:10094000B006FFF769FCE06940F08040E061E069D3
:1009500000F08040059007B0F0BD00000078004036
:1009600000100240000800480248816802781144E3
:100970008160704708000020074810B5016841F009
:1009800010010160032000F061F8002000F006F87B
:1009900000F024F8002010BD0020024070B50D4D7D
:1009A00004464FF47A712878B1FBF0F00A490968DF
:1009B000B1FBF0F000F040FD48B9102C07D2002246
:1009C0002146501E00F022F800206C6070BD01200E
:1009D00070BD000008000020140000200A4882B00A
:1009E000816941F001018161816901F0010100919A
:1009F000C16941F08051C161C06900F08050009030
:100A0000072002B000F022B800100240F0B40E4BF4
:100A10001B680C46C3F30223C3F10705042D00D95C
:100A20000425191D072901D2002300E0DB1E012641
:100A300006FA05F1491E214099409E40761E164057
:100A40003143F0BC00F0A0BE0CED00E0064900F020
:100A5000070208684FF6FF03184040EA0220034AE5
:100A600010430860704700000CED00E00000FA053C
:100A70002DE9F84F044600689F4DC0036FD5E86923
:100A80000026C00008D4E86940F08050E861E869B9
:100A9000012600F08050009098480168C90512D4E2
:100AA0000168804641F480710160FFF7A5FC0746AC
:100AB00005E000BFFFF7A0FCC01B642835D8D8F8BC
:100AC0000000C005F6D5286A10F4407053D0A18804
:100AD00001F4407181424ED0286A4FF4803191FA7E
:100AE000A1F2B2FA82F29700854A4FF0010817444A
:100AF00020F44070C7F8008491FAA1F1B1FA81F1B5
:100B000002EB81010023C1F800342862C00732D013
:100B1000FFF772FC074641F2883A4FF0020907E0FE
:100B2000FFF76AFCC11B514502D90320BDE8F88FCD
:100B300099FAA9F1B1FA81F141F040024846B8EBC7
:100B4000521F01D12A680CE090FAA0F2B2FA82F2A8
:100B500042F04002B0EB521F02D12A6A01E015E0D8
:100B60006A6A99FAA9F0B0FA80F000F01F0008FA5A
:100B700000F10A42D4D0286A616820F4407008432A
:100B800028621EB1E86920F08050E8612078C00733
:100B900005D0286BA16820F0030008432863207863
:100BA000800705D5286BE16820F4403008432863AE
:100BB0002078400705D5286B216920F440200843A0
:100BC00028632078800605D5286BE16920F01000A5
:100BD000084328632068800305D56868616D20F4A8
:100BE0008000084368602078400605D5286B216A9C
:100BF00020F02000084328632068400305D5286BB7
:100C0000616A20F04000084328632078000705D57A
:100C1000286B616920F44010084328632078C006DF
:100C200005D5286BA16920F440000843286320887B
:100C3000800505D56868216B20F4000008436860D2
:100C40002078000605D5E86AA16A20F4F870084308
:100C5000E8622088C00505D5E86AE16A20F478508A
:100C60000843E8622088C00405D5286B616B20F436
:100C70008070084328632088800405D5286B216C88
:100C800020F40070084328632068C00205D5286B53
:100C9000A16B20F08070084328632068800205D58E
:100CA000286BE16B20F00070084328632068400245
:100CB00005D5286B616C20F48060084328632068A8
:100CC000000205D5286BA16C20F40060084328635E
:100CD0002068C00105D5286BE16C20F40050084362
:100CE00028632068800105D5286B216D20F4004021
:100CF00008432863002019E70010024000700040FC
:100D0000000042422DE9F0470F46050069D04A4EE7
:100D1000306800F00700B84209D2306820F00700C0
:100D200038433060306800F00700B84259D1287865
:100D3000424C800705D56068A96820F0F0000843A0
:100D400060602878C0073DD06968012001290DD076
:100D5000022923D05FF0020393FAA3F2B2FA82F2DF
:100D600042F02002520904D0226803E04FF400331D
:100D7000F2E7626A93FAA3F3B3FA83F303F01F0373
:100D8000984002422DD0606820F003000843606064
:100D9000FFF732FB804641F288390CE04FF00073D8
:100DA000DAE700BFFFF728FBA0EB0801494502D9AD
:100DB0000320BDE8F0876068696800F00C00B0EBC4
:100DC000810FEFD1306800F00700B8420BD93068CE
:100DD00020F0070038433060306800F00700B84268
:100DE00001D00120E5E72878400705D56068E9686B
:100DF00020F4E060084360602878000706D560684A
:100E0000296920F4605040EAC100606000F01CF8DD
:100E10006168F02292FAA2F201F0F001B2FA82F2D5
:100E2000D140074A515CC840064908600020FFF7DE
:100E3000B5FD0020BDE70000002002400010024088
:100E40007819000814000020124B10B55968124898
:100E500001F00C02042A1CD0082A1AD14FF4701495
:100E600094FAA4F401F47012B4FA84F4E2400B4C46
:100E7000DB6AA25C0F2494FAA4F403F00F03B4FA23
:100E800084F4E340054CC9031034E35CB0FBF3F099
:100E9000504310BD0010024000127A00581900089B
:100EA0002DE9F84F04007DD02078FA4DC0074FF0AF
:100EB000010637D068687704C0F38100012819D093
:100EC0006868C0F38100022804D16868C0F3C130AB
:100ED00002280FD06068B0F5803F24D010B1B0F583
:100EE000A02F2AD0286820F480302860286820F4B9
:100EF00080201BE097FAA7F0B0FA80F040F02000C5
:100F0000400901D0286800E0686A97FAA7F1B1FAB1
:100F100081F101F01F0106FA01F108424ED060682C
:100F20000028C0D04AE0286840F48030286060681B
:100F300020B3FFF761FA80460AE0286840F4802079
:100F40002860F0E7FFF758FAA0EB0800642873D890
:100F500097FAA7F0B0FA80F040F02000400901D0E5
:100F6000286800E0686A97FAA7F1B1FA81F101F008
:100F70001F0106FA01F10842E4D01FE0FFF73CFA36
:100F8000804605E0FFF738FAA0EB08006428DED8B9
:100F900097FAA7F0B0FA80F040F02000400902D0A4
:100FA000286801E0B9E0686A97FAA7F1B1FA81F11F
:100FB00001F01F0106FA01F10842E3D12078DFF8C1
:100FC000D88280074FF0000A4FF002075DD56868AD
:100FD0004FF0F80B10F00C0F15D06868C0F38100CB
:100FE000022804D16868C0F3C13001280BD0E06842
:100FF000A0B396FAA6F0B0FA80F048F82060FFF7A8
:10100000FBF9814620E097FAA7F0B0FA80F040F0B3
:101010002000400901D0286800E0686A97FAA7F12B
:10102000B1FA81F101F01F0106FA01F1084221D065
:10103000E068012871D11DE056E100BFFFF7DCF93F
:10104000A0EB09000228A2D897FAA7F0B0FA80F026
:1010500040F02000400902D0286801E016E0686AEC
:1010600097FAA7F1B1FA81F101F01F0106FA01F137
:101070000842E3D028689BFAABF22169B2FA82F207
:1010800020F0F80091400843286024E096FAA6F189
:10109000B1FA81F148F821A0FFF7AEF9814605E0E9
:1010A000FFF7AAF9A0EB09000228CCD897FAA7F01D
:1010B000B0FA80F040F02000400901D0286800E03C
:1010C000686A97FAA7F1B1FA81F101F01F0106FAF7
:1010D00001F10842E4D1207800076AD56069A0B325
:1010E00096FAA6F0B0FA80F008EB8000C0F88064B1
:1010F000FFF782F9814605E0FFF77EF9A0EB0900D2
:101100000228A0D897FAA7F0B0FA80F040F060006B
:10111000B6EB501F02D128680CE073E197FAA7F0F4
:10112000B0FA80F040F06000B7EB501F01D1286AA0
:1011300000E0686A97FAA7F1B1FA81F101F01F01A6
:1011400006FA01F21042D7D033E0FFE796FAA6F094
:10115000B0FA80F008EB8000C0F880A4FFF74CF9EB
:10116000814605E0FFF748F9A0EB090002289CD86A
:1011700097FAA7F0B0FA80F040F06000B6EB501F8D
:1011800001D128680BE097FAA7F0B0FA80F040F0A0
:101190006000B7EB501F01D1286A00E0686A97FA37
:1011A000A7F1B1FA81F101F01F0106FA01F2104234
:1011B000D8D12078400774D5E8694FF00009C00005
:1011C00009D4E86940F08050E861E8694FF001090E
:1011D00000F08050009031480168C90512D40168C0
:1011E00041F480710160FFF707F9834606E000BF14
:1011F000FFF702F9A0EB0B00642875D827480068B8
:10120000C005F5D5A06801280AD008B1052811D07D
:10121000286A20F001002862286A20F0040002E019
:10122000286A40F001002862A068C8B3FFF7E4F81C
:1012300083460DE0286A40F004002862F0E700BF12
:10124000FFF7DAF8A0EB0B0141F2883081424BD86E
:1012500097FAA7F0B0FA80F040F04000B6EB501FCC
:1012600001D128680BE097FAA7F0B0FA80F040F0BF
:101270004000B7EB501F01D1286A00E0686A97FA76
:10128000A7F1B1FA81F101F01F0106FA01F2104253
:10129000D6D035E00010024000004242007000400D
:1012A00000E034E0FFF7A8F8834607E0FFF7A4F872
:1012B000A0EB0B0141F28830814215D897FAA7F0D4
:1012C000B0FA80F040F04000B6EB501F01D1286822
:1012D0000CE097FAA7F0B0FA80F040F04000B7EBCE
:1012E000501F02D1286A01E089E0686A97FAA7F1E5
:1012F000B1FA81F101F01F0106FA01F21042D5D1D5
:10130000B9F1000F03D0E86920F08050E861A069CE
:1013100080B36968C1F38101022973D04FF08071F5
:101320004F000228524609D091FAA1F0B0FA80F09D
:1013300048F82020FFF760F8044664E091FAA1F035
:10134000B0FA80F08A46C14648F82020FFF754F8EA
:10135000804605E0FFF750F8A0EB080002284ED8C1
:1013600097FAA7F0B0FA80F040F02000400902D0D0
:10137000286801E05CE0686A97FAA7F1B1FA81F1A8
:1013800001F01F0106FA01F10842E3D1E86A616A3F
:1013900020F00F000843E862D4E9071008436968A9
:1013A00021F47611084368609AFAAAF0B0FA80F046
:1013B00049F82060FFF720F8044604E0FFF71CF826
:1013C000001B02281BD897FAA7F0B0FA80F040F073
:1013D0002000400901D0286800E0686A97FAA7F168
:1013E000B1FA81F101F01F0106FA01F10842E5D0DE
:1013F0001EE000BFFFF700F8001B022803D90320FE
:10140000BDE8F88F16E097FAA7F0B0FA80F040F048
:101410002000400901D0286800E0686A97FAA7F127
:10142000B1FA81F101F01F0106FA01F10842E1D1A0
:101430000020E5E70120E3E710B5401EB0F1807F12
:1014400001D3012010BD4FF0E02460610F2160172F
:1014500000F09AF90020A06107202061002010BD53
:10146000FEE701688A69D243920701D400228A62AA
:1014700000688169C943C90703D0816941F001014E
:10148000816170472DE9F0410446006890460E46A0
:101490008069C043C0062ED40025202720688069BB
:1014A000C043800611D5701CF8D02EB1FEF7A4FF02
:1014B000A0EB0800B042F1D984F8417084F84250A2
:1014C00084F840500320BDE8F08121681020C861F5
:1014D0002068C7612046FFF7C4FF54F8440B4168F9
:1014E000064A11404160042044F820096777A57737
:1014F00025770120E7E70020E5E7000000E800FE8F
:10150000F0B50568059C68684FF48066064FC1F326
:10151000090106EA545641EA02413E431943B043E9
:10152000214308436860F0BDFF63FF032DE9F041EC
:101530001D4617460E460446DDF8188013E0681C69
:1015400011D02DB1FEF758FFA0EB0800A8420AD930
:10155000202084F84100002084F8420084F84000F4
:101560000320BDE8F0812068806936EA000004D0DD
:101570000020B842E3D00020F3E70120F9E70000A3
:101580002DE9F041002690460F460446202532E022
:10159000424639462046FFF775FF10B10120BDE8ED
:1015A000F08120688069C043800613D42068816977
:1015B000C943490701D4218D11BBC56154F8440BBF
:1015C0004168104A1140416044F820696577A67768
:1015D0002677E3E72FB1FEF70FFFA0EB0800B84234
:1015E00009D954F8440F40F0200044F8040965700C
:1015F00026700320D3E720688069C0434007C7D422
:101600000020CCE700E800FE70B516460D46044603
:101610001AE0324629462046FFF734FF08B1012080
:1016200070BD25B1FEF7E8FE801BA8420CD954F826
:10163000440F40F0200044F804092020607000208E
:10164000A0702070032070BD20688069C0438006B0
:10165000DFD4002070BD70B516460D4604461CE070
:10166000324629462046FFF70DFF08B1012070BD24
:10167000681C12D025B1FEF7BFFE801BA8420CD912
:1016800054F8440F40F0200044F804092020607012
:101690000020A0702070032070BD20688069C043C6
:1016A0008007DDD4002070BD30B587B014216846B6
:1016B000FEF793FD1F48416941F480214161416972
:1016C00001F480210591416941F4002141614169A2
:1016D00001F400210591416941F400314161406903
:1016E000154D00F400304FF440540590002221467F
:1016F0002846FEF77BFE0120CDE90040002402943D
:10170000694628460394FEF787FD4FF44040CDE933
:101710000004694628460294FEF77EFD4FF480508F
:10172000CDE90004694605480294FEF775FD07B04F
:1017300030BD0000001002400004004800080048CE
:101740000E4810B50C4901600D494160002101228D
:10175000C0E90212016141618161C1610162FEF76C
:10176000A5FE00210548FEF74DFEBDE81040002112
:101770000248FEF772BE000000780040180000200A
:101780000E090020FEE770470907090E002806DA57
:1017900000F00F0000F1E02080F8141D704700F108
:1017A000E02080F80014704770477047FFF7DCB8FE
:1017B00030B5A5B0282116A8FEF70FFD142120A8EA
:1017C000FEF70BFD58216846FEF707FD0120199032
:1017D000102002251A90C002CDE91C504FF4E010F1
:1017E0000024CDE91E04169516A8FFF759FB0F201B
:1017F000CDE920056802CDE92240022120A82494E9
:10180000FFF780FA6804009009946846FFF730F902
:1018100025B030BD1448016841F4700101601348DF
:10182000016841F0010101604168114A11404160C5
:101830000168104A11400160016821F480210160B3
:10184000416821F4FE014160C16A21F00F01C162CB
:10185000016B094A11400163002181600249C00304
:10186000803908607047000088ED00E000100240F9
:101870000CC07FF8FFFFF6FECCFC00FFFEE702E0A5
:1018800008C8121F08C1002AFAD17047704700200B
:1018900001E001C1121F002AFBD1704708B5FFF714
:1018A0006BF8FFF785FFFFF7FFFEFFF749FF002406
:1018B0000A23012221462448FEF754FEE0B3641CAB
:1018C000E4B2FF2CF4D3214C20261F202670607038
:1018D0000A2502232246D2211B480095FEF76AFF03
:1018E000267001232246D22117480095FEF762FF99
:1018F000292626700123621CD32113480095FEF788
:10190000C1FEDFF84C9000274FF4005826700123E9
:101910000E4AD2210C480095FEF74CFF2770012398
:10192000A21CD22108480095FEF7ACFE01224146D8
:101930004846FEF75BFDE9E7FFE74FF480510548B5
:10194000FEF750FDBFE70000180000200000002057
:1019500000040048000C00480203040506070809BB
:101960000A0B0C0D0E0F10100102030405060708E8
:10197000090A0B0C0D0E0F10000000000000000003
:101980000102030406070809A81900080000002046
:10199000180000007E180008C01900081800002078
:1019A000500400008E180008000000000000000035
:1019B00001000000100000000000000000127A008A
:040000050800019559
:00000001FF
